{
	"contracts/DonateCrypto.sol": {
		"DonateCrypto": {
			"abi": [
				{
					"inputs": [
						{
							"internalType": "string",
							"name": "tittle",
							"type": "string"
						},
						{
							"internalType": "string",
							"name": "description",
							"type": "string"
						},
						{
							"internalType": "string",
							"name": "videoUrl",
							"type": "string"
						},
						{
							"internalType": "string",
							"name": "imageUrl",
							"type": "string"
						}
					],
					"name": "addCampaign",
					"outputs": [],
					"stateMutability": "nonpayable",
					"type": "function"
				},
				{
					"inputs": [
						{
							"internalType": "uint256",
							"name": "",
							"type": "uint256"
						}
					],
					"name": "campaigns",
					"outputs": [
						{
							"internalType": "address",
							"name": "author",
							"type": "address"
						},
						{
							"internalType": "string",
							"name": "tittle",
							"type": "string"
						},
						{
							"internalType": "string",
							"name": "decription",
							"type": "string"
						},
						{
							"internalType": "string",
							"name": "videoUrl",
							"type": "string"
						},
						{
							"internalType": "string",
							"name": "imageUrl",
							"type": "string"
						},
						{
							"internalType": "uint256",
							"name": "balance",
							"type": "uint256"
						},
						{
							"internalType": "bool",
							"name": "active",
							"type": "bool"
						}
					],
					"stateMutability": "view",
					"type": "function"
				},
				{
					"inputs": [
						{
							"internalType": "uint256",
							"name": "id",
							"type": "uint256"
						}
					],
					"name": "donate",
					"outputs": [],
					"stateMutability": "payable",
					"type": "function"
				},
				{
					"inputs": [],
					"name": "fee",
					"outputs": [
						{
							"internalType": "uint256",
							"name": "",
							"type": "uint256"
						}
					],
					"stateMutability": "view",
					"type": "function"
				},
				{
					"inputs": [],
					"name": "nextId",
					"outputs": [
						{
							"internalType": "uint256",
							"name": "",
							"type": "uint256"
						}
					],
					"stateMutability": "view",
					"type": "function"
				},
				{
					"inputs": [
						{
							"internalType": "uint256",
							"name": "id",
							"type": "uint256"
						}
					],
					"name": "withdraw",
					"outputs": [],
					"stateMutability": "nonpayable",
					"type": "function"
				}
			],
			"devdoc": {
				"kind": "dev",
				"methods": {},
				"version": 1
			},
			"evm": {
				"assembly": "    /* \"contracts/DonateCrypto.sol\":655:3589  contract DonateCrypto {... */\n  mstore(0x40, 0x80)\n    /* \"contracts/DonateCrypto.sol\":933:936  100 */\n  0x64\n    /* \"contracts/DonateCrypto.sol\":912:936  uint256 public fee = 100 */\n  0x00\n  sstore\n    /* \"contracts/DonateCrypto.sol\":1054:1055  0 */\n  0x00\n    /* \"contracts/DonateCrypto.sol\":1030:1055  uint256 public nextId = 0 */\n  0x01\n  sstore\n    /* \"contracts/DonateCrypto.sol\":655:3589  contract DonateCrypto {... */\n  callvalue\n  dup1\n  iszero\n  tag_1\n  jumpi\n  0x00\n  dup1\n  revert\ntag_1:\n  pop\n  dataSize(sub_0)\n  dup1\n  dataOffset(sub_0)\n  0x00\n  codecopy\n  0x00\n  return\nstop\n\nsub_0: assembly {\n        /* \"contracts/DonateCrypto.sol\":655:3589  contract DonateCrypto {... */\n      mstore(0x40, 0x80)\n      jumpi(tag_1, lt(calldatasize, 0x04))\n      shr(0xe0, calldataload(0x00))\n      dup1\n      0x141961bc\n      eq\n      tag_2\n      jumpi\n      dup1\n      0x2e1a7d4d\n      eq\n      tag_3\n      jumpi\n      dup1\n      0x61b8ce8c\n      eq\n      tag_4\n      jumpi\n      dup1\n      0xddca3f43\n      eq\n      tag_5\n      jumpi\n      dup1\n      0xec671486\n      eq\n      tag_6\n      jumpi\n      dup1\n      0xf14faf6f\n      eq\n      tag_7\n      jumpi\n    tag_1:\n      0x00\n      dup1\n      revert\n        /* \"contracts/DonateCrypto.sol\":1190:1235  mapping(uint256 => Campaign) public campaigns */\n    tag_2:\n      callvalue\n      dup1\n      iszero\n      tag_8\n      jumpi\n      0x00\n      dup1\n      revert\n    tag_8:\n      pop\n      tag_9\n      0x04\n      dup1\n      calldatasize\n      sub\n      dup2\n      add\n      swap1\n      tag_10\n      swap2\n      swap1\n      tag_11\n      jump\t// in\n    tag_10:\n      tag_12\n      jump\t// in\n    tag_9:\n      mload(0x40)\n      tag_13\n      swap8\n      swap7\n      swap6\n      swap5\n      swap4\n      swap3\n      swap2\n      swap1\n      tag_14\n      jump\t// in\n    tag_13:\n      mload(0x40)\n      dup1\n      swap2\n      sub\n      swap1\n      return\n        /* \"contracts/DonateCrypto.sol\":3091:3586  function withdraw(uint256 id) public {... */\n    tag_3:\n      callvalue\n      dup1\n      iszero\n      tag_15\n      jumpi\n      0x00\n      dup1\n      revert\n    tag_15:\n      pop\n      tag_16\n      0x04\n      dup1\n      calldatasize\n      sub\n      dup2\n      add\n      swap1\n      tag_17\n      swap2\n      swap1\n      tag_11\n      jump\t// in\n    tag_17:\n      tag_18\n      jump\t// in\n    tag_16:\n      stop\n        /* \"contracts/DonateCrypto.sol\":1030:1055  uint256 public nextId = 0 */\n    tag_4:\n      callvalue\n      dup1\n      iszero\n      tag_19\n      jumpi\n      0x00\n      dup1\n      revert\n    tag_19:\n      pop\n      tag_20\n      tag_21\n      jump\t// in\n    tag_20:\n      mload(0x40)\n      tag_22\n      swap2\n      swap1\n      tag_23\n      jump\t// in\n    tag_22:\n      mload(0x40)\n      dup1\n      swap2\n      sub\n      swap1\n      return\n        /* \"contracts/DonateCrypto.sol\":912:936  uint256 public fee = 100 */\n    tag_5:\n      callvalue\n      dup1\n      iszero\n      tag_24\n      jumpi\n      0x00\n      dup1\n      revert\n    tag_24:\n      pop\n      tag_25\n      tag_26\n      jump\t// in\n    tag_25:\n      mload(0x40)\n      tag_27\n      swap2\n      swap1\n      tag_23\n      jump\t// in\n    tag_27:\n      mload(0x40)\n      dup1\n      swap2\n      sub\n      swap1\n      return\n        /* \"contracts/DonateCrypto.sol\":1843:2388  function addCampaign(string calldata tittle, string calldata description, string calldata videoUrl, string calldata imageUrl) public {... */\n    tag_6:\n      callvalue\n      dup1\n      iszero\n      tag_28\n      jumpi\n      0x00\n      dup1\n      revert\n    tag_28:\n      pop\n      tag_29\n      0x04\n      dup1\n      calldatasize\n      sub\n      dup2\n      add\n      swap1\n      tag_30\n      swap2\n      swap1\n      tag_31\n      jump\t// in\n    tag_30:\n      tag_32\n      jump\t// in\n    tag_29:\n      stop\n        /* \"contracts/DonateCrypto.sol\":2801:3085  function donate(uint256 id) public payable {... */\n    tag_7:\n      tag_33\n      0x04\n      dup1\n      calldatasize\n      sub\n      dup2\n      add\n      swap1\n      tag_34\n      swap2\n      swap1\n      tag_11\n      jump\t// in\n    tag_34:\n      tag_35\n      jump\t// in\n    tag_33:\n      stop\n        /* \"contracts/DonateCrypto.sol\":1190:1235  mapping(uint256 => Campaign) public campaigns */\n    tag_12:\n      mstore(0x20, 0x02)\n      dup1\n      0x00\n      mstore\n      keccak256(0x00, 0x40)\n      0x00\n      swap2\n      pop\n      swap1\n      pop\n      dup1\n      0x00\n      add\n      0x00\n      swap1\n      sload\n      swap1\n      0x0100\n      exp\n      swap1\n      div\n      0xffffffffffffffffffffffffffffffffffffffff\n      and\n      swap1\n      dup1\n      0x01\n      add\n      dup1\n      sload\n      tag_36\n      swap1\n      tag_37\n      jump\t// in\n    tag_36:\n      dup1\n      0x1f\n      add\n      0x20\n      dup1\n      swap2\n      div\n      mul\n      0x20\n      add\n      mload(0x40)\n      swap1\n      dup2\n      add\n      0x40\n      mstore\n      dup1\n      swap3\n      swap2\n      swap1\n      dup2\n      dup2\n      mstore\n      0x20\n      add\n      dup3\n      dup1\n      sload\n      tag_38\n      swap1\n      tag_37\n      jump\t// in\n    tag_38:\n      dup1\n      iszero\n      tag_39\n      jumpi\n      dup1\n      0x1f\n      lt\n      tag_40\n      jumpi\n      0x0100\n      dup1\n      dup4\n      sload\n      div\n      mul\n      dup4\n      mstore\n      swap2\n      0x20\n      add\n      swap2\n      jump(tag_39)\n    tag_40:\n      dup3\n      add\n      swap2\n      swap1\n      0x00\n      mstore\n      keccak256(0x00, 0x20)\n      swap1\n    tag_41:\n      dup2\n      sload\n      dup2\n      mstore\n      swap1\n      0x01\n      add\n      swap1\n      0x20\n      add\n      dup1\n      dup4\n      gt\n      tag_41\n      jumpi\n      dup3\n      swap1\n      sub\n      0x1f\n      and\n      dup3\n      add\n      swap2\n    tag_39:\n      pop\n      pop\n      pop\n      pop\n      pop\n      swap1\n      dup1\n      0x02\n      add\n      dup1\n      sload\n      tag_42\n      swap1\n      tag_37\n      jump\t// in\n    tag_42:\n      dup1\n      0x1f\n      add\n      0x20\n      dup1\n      swap2\n      div\n      mul\n      0x20\n      add\n      mload(0x40)\n      swap1\n      dup2\n      add\n      0x40\n      mstore\n      dup1\n      swap3\n      swap2\n      swap1\n      dup2\n      dup2\n      mstore\n      0x20\n      add\n      dup3\n      dup1\n      sload\n      tag_43\n      swap1\n      tag_37\n      jump\t// in\n    tag_43:\n      dup1\n      iszero\n      tag_44\n      jumpi\n      dup1\n      0x1f\n      lt\n      tag_45\n      jumpi\n      0x0100\n      dup1\n      dup4\n      sload\n      div\n      mul\n      dup4\n      mstore\n      swap2\n      0x20\n      add\n      swap2\n      jump(tag_44)\n    tag_45:\n      dup3\n      add\n      swap2\n      swap1\n      0x00\n      mstore\n      keccak256(0x00, 0x20)\n      swap1\n    tag_46:\n      dup2\n      sload\n      dup2\n      mstore\n      swap1\n      0x01\n      add\n      swap1\n      0x20\n      add\n      dup1\n      dup4\n      gt\n      tag_46\n      jumpi\n      dup3\n      swap1\n      sub\n      0x1f\n      and\n      dup3\n      add\n      swap2\n    tag_44:\n      pop\n      pop\n      pop\n      pop\n      pop\n      swap1\n      dup1\n      0x03\n      add\n      dup1\n      sload\n      tag_47\n      swap1\n      tag_37\n      jump\t// in\n    tag_47:\n      dup1\n      0x1f\n      add\n      0x20\n      dup1\n      swap2\n      div\n      mul\n      0x20\n      add\n      mload(0x40)\n      swap1\n      dup2\n      add\n      0x40\n      mstore\n      dup1\n      swap3\n      swap2\n      swap1\n      dup2\n      dup2\n      mstore\n      0x20\n      add\n      dup3\n      dup1\n      sload\n      tag_48\n      swap1\n      tag_37\n      jump\t// in\n    tag_48:\n      dup1\n      iszero\n      tag_49\n      jumpi\n      dup1\n      0x1f\n      lt\n      tag_50\n      jumpi\n      0x0100\n      dup1\n      dup4\n      sload\n      div\n      mul\n      dup4\n      mstore\n      swap2\n      0x20\n      add\n      swap2\n      jump(tag_49)\n    tag_50:\n      dup3\n      add\n      swap2\n      swap1\n      0x00\n      mstore\n      keccak256(0x00, 0x20)\n      swap1\n    tag_51:\n      dup2\n      sload\n      dup2\n      mstore\n      swap1\n      0x01\n      add\n      swap1\n      0x20\n      add\n      dup1\n      dup4\n      gt\n      tag_51\n      jumpi\n      dup3\n      swap1\n      sub\n      0x1f\n      and\n      dup3\n      add\n      swap2\n    tag_49:\n      pop\n      pop\n      pop\n      pop\n      pop\n      swap1\n      dup1\n      0x04\n      add\n      dup1\n      sload\n      tag_52\n      swap1\n      tag_37\n      jump\t// in\n    tag_52:\n      dup1\n      0x1f\n      add\n      0x20\n      dup1\n      swap2\n      div\n      mul\n      0x20\n      add\n      mload(0x40)\n      swap1\n      dup2\n      add\n      0x40\n      mstore\n      dup1\n      swap3\n      swap2\n      swap1\n      dup2\n      dup2\n      mstore\n      0x20\n      add\n      dup3\n      dup1\n      sload\n      tag_53\n      swap1\n      tag_37\n      jump\t// in\n    tag_53:\n      dup1\n      iszero\n      tag_54\n      jumpi\n      dup1\n      0x1f\n      lt\n      tag_55\n      jumpi\n      0x0100\n      dup1\n      dup4\n      sload\n      div\n      mul\n      dup4\n      mstore\n      swap2\n      0x20\n      add\n      swap2\n      jump(tag_54)\n    tag_55:\n      dup3\n      add\n      swap2\n      swap1\n      0x00\n      mstore\n      keccak256(0x00, 0x20)\n      swap1\n    tag_56:\n      dup2\n      sload\n      dup2\n      mstore\n      swap1\n      0x01\n      add\n      swap1\n      0x20\n      add\n      dup1\n      dup4\n      gt\n      tag_56\n      jumpi\n      dup3\n      swap1\n      sub\n      0x1f\n      and\n      dup3\n      add\n      swap2\n    tag_54:\n      pop\n      pop\n      pop\n      pop\n      pop\n      swap1\n      dup1\n      0x05\n      add\n      sload\n      swap1\n      dup1\n      0x06\n      add\n      0x00\n      swap1\n      sload\n      swap1\n      0x0100\n      exp\n      swap1\n      div\n      0xff\n      and\n      swap1\n      pop\n      dup8\n      jump\t// out\n        /* \"contracts/DonateCrypto.sol\":3091:3586  function withdraw(uint256 id) public {... */\n    tag_18:\n        /* \"contracts/DonateCrypto.sol\":3138:3162  Campaign memory campaign */\n      0x00\n        /* \"contracts/DonateCrypto.sol\":3165:3174  campaigns */\n      0x02\n        /* \"contracts/DonateCrypto.sol\":3165:3178  campaigns[id] */\n      0x00\n        /* \"contracts/DonateCrypto.sol\":3175:3177  id */\n      dup4\n        /* \"contracts/DonateCrypto.sol\":3165:3178  campaigns[id] */\n      dup2\n      mstore\n      0x20\n      add\n      swap1\n      dup2\n      mstore\n      0x20\n      add\n      0x00\n      keccak256\n        /* \"contracts/DonateCrypto.sol\":3138:3178  Campaign memory campaign = campaigns[id] */\n      mload(0x40)\n      dup1\n      0xe0\n      add\n      0x40\n      mstore\n      swap1\n      dup2\n      0x00\n      dup3\n      add\n      0x00\n      swap1\n      sload\n      swap1\n      0x0100\n      exp\n      swap1\n      div\n      0xffffffffffffffffffffffffffffffffffffffff\n      and\n      0xffffffffffffffffffffffffffffffffffffffff\n      and\n      0xffffffffffffffffffffffffffffffffffffffff\n      and\n      dup2\n      mstore\n      0x20\n      add\n      0x01\n      dup3\n      add\n      dup1\n      sload\n      tag_58\n      swap1\n      tag_37\n      jump\t// in\n    tag_58:\n      dup1\n      0x1f\n      add\n      0x20\n      dup1\n      swap2\n      div\n      mul\n      0x20\n      add\n      mload(0x40)\n      swap1\n      dup2\n      add\n      0x40\n      mstore\n      dup1\n      swap3\n      swap2\n      swap1\n      dup2\n      dup2\n      mstore\n      0x20\n      add\n      dup3\n      dup1\n      sload\n      tag_59\n      swap1\n      tag_37\n      jump\t// in\n    tag_59:\n      dup1\n      iszero\n      tag_60\n      jumpi\n      dup1\n      0x1f\n      lt\n      tag_61\n      jumpi\n      0x0100\n      dup1\n      dup4\n      sload\n      div\n      mul\n      dup4\n      mstore\n      swap2\n      0x20\n      add\n      swap2\n      jump(tag_60)\n    tag_61:\n      dup3\n      add\n      swap2\n      swap1\n      0x00\n      mstore\n      keccak256(0x00, 0x20)\n      swap1\n    tag_62:\n      dup2\n      sload\n      dup2\n      mstore\n      swap1\n      0x01\n      add\n      swap1\n      0x20\n      add\n      dup1\n      dup4\n      gt\n      tag_62\n      jumpi\n      dup3\n      swap1\n      sub\n      0x1f\n      and\n      dup3\n      add\n      swap2\n    tag_60:\n      pop\n      pop\n      pop\n      pop\n      pop\n      dup2\n      mstore\n      0x20\n      add\n      0x02\n      dup3\n      add\n      dup1\n      sload\n      tag_63\n      swap1\n      tag_37\n      jump\t// in\n    tag_63:\n      dup1\n      0x1f\n      add\n      0x20\n      dup1\n      swap2\n      div\n      mul\n      0x20\n      add\n      mload(0x40)\n      swap1\n      dup2\n      add\n      0x40\n      mstore\n      dup1\n      swap3\n      swap2\n      swap1\n      dup2\n      dup2\n      mstore\n      0x20\n      add\n      dup3\n      dup1\n      sload\n      tag_64\n      swap1\n      tag_37\n      jump\t// in\n    tag_64:\n      dup1\n      iszero\n      tag_65\n      jumpi\n      dup1\n      0x1f\n      lt\n      tag_66\n      jumpi\n      0x0100\n      dup1\n      dup4\n      sload\n      div\n      mul\n      dup4\n      mstore\n      swap2\n      0x20\n      add\n      swap2\n      jump(tag_65)\n    tag_66:\n      dup3\n      add\n      swap2\n      swap1\n      0x00\n      mstore\n      keccak256(0x00, 0x20)\n      swap1\n    tag_67:\n      dup2\n      sload\n      dup2\n      mstore\n      swap1\n      0x01\n      add\n      swap1\n      0x20\n      add\n      dup1\n      dup4\n      gt\n      tag_67\n      jumpi\n      dup3\n      swap1\n      sub\n      0x1f\n      and\n      dup3\n      add\n      swap2\n    tag_65:\n      pop\n      pop\n      pop\n      pop\n      pop\n      dup2\n      mstore\n      0x20\n      add\n      0x03\n      dup3\n      add\n      dup1\n      sload\n      tag_68\n      swap1\n      tag_37\n      jump\t// in\n    tag_68:\n      dup1\n      0x1f\n      add\n      0x20\n      dup1\n      swap2\n      div\n      mul\n      0x20\n      add\n      mload(0x40)\n      swap1\n      dup2\n      add\n      0x40\n      mstore\n      dup1\n      swap3\n      swap2\n      swap1\n      dup2\n      dup2\n      mstore\n      0x20\n      add\n      dup3\n      dup1\n      sload\n      tag_69\n      swap1\n      tag_37\n      jump\t// in\n    tag_69:\n      dup1\n      iszero\n      tag_70\n      jumpi\n      dup1\n      0x1f\n      lt\n      tag_71\n      jumpi\n      0x0100\n      dup1\n      dup4\n      sload\n      div\n      mul\n      dup4\n      mstore\n      swap2\n      0x20\n      add\n      swap2\n      jump(tag_70)\n    tag_71:\n      dup3\n      add\n      swap2\n      swap1\n      0x00\n      mstore\n      keccak256(0x00, 0x20)\n      swap1\n    tag_72:\n      dup2\n      sload\n      dup2\n      mstore\n      swap1\n      0x01\n      add\n      swap1\n      0x20\n      add\n      dup1\n      dup4\n      gt\n      tag_72\n      jumpi\n      dup3\n      swap1\n      sub\n      0x1f\n      and\n      dup3\n      add\n      swap2\n    tag_70:\n      pop\n      pop\n      pop\n      pop\n      pop\n      dup2\n      mstore\n      0x20\n      add\n      0x04\n      dup3\n      add\n      dup1\n      sload\n      tag_73\n      swap1\n      tag_37\n      jump\t// in\n    tag_73:\n      dup1\n      0x1f\n      add\n      0x20\n      dup1\n      swap2\n      div\n      mul\n      0x20\n      add\n      mload(0x40)\n      swap1\n      dup2\n      add\n      0x40\n      mstore\n      dup1\n      swap3\n      swap2\n      swap1\n      dup2\n      dup2\n      mstore\n      0x20\n      add\n      dup3\n      dup1\n      sload\n      tag_74\n      swap1\n      tag_37\n      jump\t// in\n    tag_74:\n      dup1\n      iszero\n      tag_75\n      jumpi\n      dup1\n      0x1f\n      lt\n      tag_76\n      jumpi\n      0x0100\n      dup1\n      dup4\n      sload\n      div\n      mul\n      dup4\n      mstore\n      swap2\n      0x20\n      add\n      swap2\n      jump(tag_75)\n    tag_76:\n      dup3\n      add\n      swap2\n      swap1\n      0x00\n      mstore\n      keccak256(0x00, 0x20)\n      swap1\n    tag_77:\n      dup2\n      sload\n      dup2\n      mstore\n      swap1\n      0x01\n      add\n      swap1\n      0x20\n      add\n      dup1\n      dup4\n      gt\n      tag_77\n      jumpi\n      dup3\n      swap1\n      sub\n      0x1f\n      and\n      dup3\n      add\n      swap2\n    tag_75:\n      pop\n      pop\n      pop\n      pop\n      pop\n      dup2\n      mstore\n      0x20\n      add\n      0x05\n      dup3\n      add\n      sload\n      dup2\n      mstore\n      0x20\n      add\n      0x06\n      dup3\n      add\n      0x00\n      swap1\n      sload\n      swap1\n      0x0100\n      exp\n      swap1\n      div\n      0xff\n      and\n      iszero\n      iszero\n      iszero\n      iszero\n      dup2\n      mstore\n      pop\n      pop\n      swap1\n      pop\n        /* \"contracts/DonateCrypto.sol\":3215:3225  msg.sender */\n      caller\n        /* \"contracts/DonateCrypto.sol\":3196:3225  campaign.author == msg.sender */\n      0xffffffffffffffffffffffffffffffffffffffff\n      and\n        /* \"contracts/DonateCrypto.sol\":3196:3204  campaign */\n      dup2\n        /* \"contracts/DonateCrypto.sol\":3196:3211  campaign.author */\n      0x00\n      add\n      mload\n        /* \"contracts/DonateCrypto.sol\":3196:3225  campaign.author == msg.sender */\n      0xffffffffffffffffffffffffffffffffffffffff\n      and\n      eq\n        /* \"contracts/DonateCrypto.sol\":3188:3256  require(campaign.author == msg.sender, \"You do not have permission\") */\n      tag_78\n      jumpi\n      mload(0x40)\n      0x08c379a000000000000000000000000000000000000000000000000000000000\n      dup2\n      mstore\n      0x04\n      add\n      tag_79\n      swap1\n      tag_80\n      jump\t// in\n    tag_79:\n      mload(0x40)\n      dup1\n      swap2\n      sub\n      swap1\n      revert\n    tag_78:\n        /* \"contracts/DonateCrypto.sol\":3298:3302  true */\n      0x01\n        /* \"contracts/DonateCrypto.sol\":3274:3302  campaigns[id].active == true */\n      iszero\n      iszero\n        /* \"contracts/DonateCrypto.sol\":3274:3283  campaigns */\n      0x02\n        /* \"contracts/DonateCrypto.sol\":3274:3287  campaigns[id] */\n      0x00\n        /* \"contracts/DonateCrypto.sol\":3284:3286  id */\n      dup5\n        /* \"contracts/DonateCrypto.sol\":3274:3287  campaigns[id] */\n      dup2\n      mstore\n      0x20\n      add\n      swap1\n      dup2\n      mstore\n      0x20\n      add\n      0x00\n      keccak256\n        /* \"contracts/DonateCrypto.sol\":3274:3294  campaigns[id].active */\n      0x06\n      add\n      0x00\n      swap1\n      sload\n      swap1\n      0x0100\n      exp\n      swap1\n      div\n      0xff\n      and\n        /* \"contracts/DonateCrypto.sol\":3274:3302  campaigns[id].active == true */\n      iszero\n      iszero\n      eq\n        /* \"contracts/DonateCrypto.sol\":3266:3330  require(campaigns[id].active == true, \"This campaign is closed\") */\n      tag_81\n      jumpi\n      mload(0x40)\n      0x08c379a000000000000000000000000000000000000000000000000000000000\n      dup2\n      mstore\n      0x04\n      add\n      tag_82\n      swap1\n      tag_83\n      jump\t// in\n    tag_82:\n      mload(0x40)\n      dup1\n      swap2\n      sub\n      swap1\n      revert\n    tag_81:\n        /* \"contracts/DonateCrypto.sol\":3367:3370  fee */\n      sload(0x00)\n        /* \"contracts/DonateCrypto.sol\":3348:3356  campaign */\n      dup2\n        /* \"contracts/DonateCrypto.sol\":3348:3364  campaign.balance */\n      0xa0\n      add\n      mload\n        /* \"contracts/DonateCrypto.sol\":3348:3370  campaign.balance > fee */\n      gt\n        /* \"contracts/DonateCrypto.sol\":3340:3417  require(campaign.balance > fee, \"This campaign does not have enough balance\") */\n      tag_84\n      jumpi\n      mload(0x40)\n      0x08c379a000000000000000000000000000000000000000000000000000000000\n      dup2\n      mstore\n      0x04\n      add\n      tag_85\n      swap1\n      tag_86\n      jump\t// in\n    tag_85:\n      mload(0x40)\n      dup1\n      swap2\n      sub\n      swap1\n      revert\n    tag_84:\n        /* \"contracts/DonateCrypto.sol\":3428:3453  address payable recipient */\n      0x00\n        /* \"contracts/DonateCrypto.sol\":3464:3472  campaign */\n      dup2\n        /* \"contracts/DonateCrypto.sol\":3464:3479  campaign.author */\n      0x00\n      add\n      mload\n        /* \"contracts/DonateCrypto.sol\":3428:3480  address payable recipient = payable(campaign.author) */\n      swap1\n      pop\n        /* \"contracts/DonateCrypto.sol\":3490:3499  recipient */\n      dup1\n        /* \"contracts/DonateCrypto.sol\":3490:3504  recipient.call */\n      0xffffffffffffffffffffffffffffffffffffffff\n      and\n        /* \"contracts/DonateCrypto.sol\":3531:3534  fee */\n      sload(0x00)\n        /* \"contracts/DonateCrypto.sol\":3512:3520  campaign */\n      dup4\n        /* \"contracts/DonateCrypto.sol\":3512:3528  campaign.balance */\n      0xa0\n      add\n      mload\n        /* \"contracts/DonateCrypto.sol\":3512:3534  campaign.balance - fee */\n      tag_87\n      swap2\n      swap1\n      tag_88\n      jump\t// in\n    tag_87:\n        /* \"contracts/DonateCrypto.sol\":3490:3539  recipient.call{value: campaign.balance - fee}(\"\") */\n      mload(0x40)\n      tag_89\n      swap1\n      tag_90\n      jump\t// in\n    tag_89:\n      0x00\n      mload(0x40)\n      dup1\n      dup4\n      sub\n      dup2\n      dup6\n      dup8\n      gas\n      call\n      swap3\n      pop\n      pop\n      pop\n      returndatasize\n      dup1\n      0x00\n      dup2\n      eq\n      tag_93\n      jumpi\n      mload(0x40)\n      swap2\n      pop\n      and(add(returndatasize, 0x3f), not(0x1f))\n      dup3\n      add\n      0x40\n      mstore\n      returndatasize\n      dup3\n      mstore\n      returndatasize\n      0x00\n      0x20\n      dup5\n      add\n      returndatacopy\n      jump(tag_92)\n    tag_93:\n      0x60\n      swap2\n      pop\n    tag_92:\n      pop\n      pop\n      pop\n        /* \"contracts/DonateCrypto.sol\":3573:3578  false */\n      0x00\n        /* \"contracts/DonateCrypto.sol\":3550:3559  campaigns */\n      0x02\n        /* \"contracts/DonateCrypto.sol\":3550:3563  campaigns[id] */\n      0x00\n        /* \"contracts/DonateCrypto.sol\":3560:3562  id */\n      dup6\n        /* \"contracts/DonateCrypto.sol\":3550:3563  campaigns[id] */\n      dup2\n      mstore\n      0x20\n      add\n      swap1\n      dup2\n      mstore\n      0x20\n      add\n      0x00\n      keccak256\n        /* \"contracts/DonateCrypto.sol\":3550:3570  campaigns[id].active */\n      0x06\n      add\n      0x00\n        /* \"contracts/DonateCrypto.sol\":3550:3578  campaigns[id].active = false */\n      0x0100\n      exp\n      dup2\n      sload\n      dup2\n      0xff\n      mul\n      not\n      and\n      swap1\n      dup4\n      iszero\n      iszero\n      mul\n      or\n      swap1\n      sstore\n      pop\n        /* \"contracts/DonateCrypto.sol\":3128:3586  {... */\n      pop\n      pop\n        /* \"contracts/DonateCrypto.sol\":3091:3586  function withdraw(uint256 id) public {... */\n      pop\n      jump\t// out\n        /* \"contracts/DonateCrypto.sol\":1030:1055  uint256 public nextId = 0 */\n    tag_21:\n      sload(0x01)\n      dup2\n      jump\t// out\n        /* \"contracts/DonateCrypto.sol\":912:936  uint256 public fee = 100 */\n    tag_26:\n      sload(0x00)\n      dup2\n      jump\t// out\n        /* \"contracts/DonateCrypto.sol\":1843:2388  function addCampaign(string calldata tittle, string calldata description, string calldata videoUrl, string calldata imageUrl) public {... */\n    tag_32:\n        /* \"contracts/DonateCrypto.sol\":2026:2053  Campaign memory newCampaign */\n      tag_95\n      tag_96\n      jump\t// in\n    tag_95:\n        /* \"contracts/DonateCrypto.sol\":2083:2089  tittle */\n      dup9\n      dup9\n        /* \"contracts/DonateCrypto.sol\":2062:2089  newCampaign.tittle = tittle */\n      dup1\n      dup1\n      0x1f\n      add\n      0x20\n      dup1\n      swap2\n      div\n      mul\n      0x20\n      add\n      mload(0x40)\n      swap1\n      dup2\n      add\n      0x40\n      mstore\n      dup1\n      swap4\n      swap3\n      swap2\n      swap1\n      dup2\n      dup2\n      mstore\n      0x20\n      add\n      dup4\n      dup4\n      dup1\n      dup3\n      dup5\n      calldatacopy\n      0x00\n      dup2\n      dup5\n      add\n      mstore\n      not(0x1f)\n      0x1f\n      dup3\n      add\n      and\n      swap1\n      pop\n      dup1\n      dup4\n      add\n      swap3\n      pop\n      pop\n      pop\n      pop\n      pop\n      pop\n      pop\n        /* \"contracts/DonateCrypto.sol\":2062:2073  newCampaign */\n      dup2\n        /* \"contracts/DonateCrypto.sol\":2062:2080  newCampaign.tittle */\n      0x20\n      add\n        /* \"contracts/DonateCrypto.sol\":2062:2089  newCampaign.tittle = tittle */\n      dup2\n      swap1\n      mstore\n      pop\n        /* \"contracts/DonateCrypto.sol\":2123:2134  description */\n      dup7\n      dup7\n        /* \"contracts/DonateCrypto.sol\":2098:2134  newCampaign.decription = description */\n      dup1\n      dup1\n      0x1f\n      add\n      0x20\n      dup1\n      swap2\n      div\n      mul\n      0x20\n      add\n      mload(0x40)\n      swap1\n      dup2\n      add\n      0x40\n      mstore\n      dup1\n      swap4\n      swap3\n      swap2\n      swap1\n      dup2\n      dup2\n      mstore\n      0x20\n      add\n      dup4\n      dup4\n      dup1\n      dup3\n      dup5\n      calldatacopy\n      0x00\n      dup2\n      dup5\n      add\n      mstore\n      not(0x1f)\n      0x1f\n      dup3\n      add\n      and\n      swap1\n      pop\n      dup1\n      dup4\n      add\n      swap3\n      pop\n      pop\n      pop\n      pop\n      pop\n      pop\n      pop\n        /* \"contracts/DonateCrypto.sol\":2098:2109  newCampaign */\n      dup2\n        /* \"contracts/DonateCrypto.sol\":2098:2120  newCampaign.decription */\n      0x40\n      add\n        /* \"contracts/DonateCrypto.sol\":2098:2134  newCampaign.decription = description */\n      dup2\n      swap1\n      mstore\n      pop\n        /* \"contracts/DonateCrypto.sol\":2166:2174  videoUrl */\n      dup5\n      dup5\n        /* \"contracts/DonateCrypto.sol\":2143:2174  newCampaign.videoUrl = videoUrl */\n      dup1\n      dup1\n      0x1f\n      add\n      0x20\n      dup1\n      swap2\n      div\n      mul\n      0x20\n      add\n      mload(0x40)\n      swap1\n      dup2\n      add\n      0x40\n      mstore\n      dup1\n      swap4\n      swap3\n      swap2\n      swap1\n      dup2\n      dup2\n      mstore\n      0x20\n      add\n      dup4\n      dup4\n      dup1\n      dup3\n      dup5\n      calldatacopy\n      0x00\n      dup2\n      dup5\n      add\n      mstore\n      not(0x1f)\n      0x1f\n      dup3\n      add\n      and\n      swap1\n      pop\n      dup1\n      dup4\n      add\n      swap3\n      pop\n      pop\n      pop\n      pop\n      pop\n      pop\n      pop\n        /* \"contracts/DonateCrypto.sol\":2143:2154  newCampaign */\n      dup2\n        /* \"contracts/DonateCrypto.sol\":2143:2163  newCampaign.videoUrl */\n      0x60\n      add\n        /* \"contracts/DonateCrypto.sol\":2143:2174  newCampaign.videoUrl = videoUrl */\n      dup2\n      swap1\n      mstore\n      pop\n        /* \"contracts/DonateCrypto.sol\":2206:2214  imageUrl */\n      dup3\n      dup3\n        /* \"contracts/DonateCrypto.sol\":2183:2214  newCampaign.imageUrl = imageUrl */\n      dup1\n      dup1\n      0x1f\n      add\n      0x20\n      dup1\n      swap2\n      div\n      mul\n      0x20\n      add\n      mload(0x40)\n      swap1\n      dup2\n      add\n      0x40\n      mstore\n      dup1\n      swap4\n      swap3\n      swap2\n      swap1\n      dup2\n      dup2\n      mstore\n      0x20\n      add\n      dup4\n      dup4\n      dup1\n      dup3\n      dup5\n      calldatacopy\n      0x00\n      dup2\n      dup5\n      add\n      mstore\n      not(0x1f)\n      0x1f\n      dup3\n      add\n      and\n      swap1\n      pop\n      dup1\n      dup4\n      add\n      swap3\n      pop\n      pop\n      pop\n      pop\n      pop\n      pop\n      pop\n        /* \"contracts/DonateCrypto.sol\":2183:2194  newCampaign */\n      dup2\n        /* \"contracts/DonateCrypto.sol\":2183:2203  newCampaign.imageUrl */\n      0x80\n      add\n        /* \"contracts/DonateCrypto.sol\":2183:2214  newCampaign.imageUrl = imageUrl */\n      dup2\n      swap1\n      mstore\n      pop\n        /* \"contracts/DonateCrypto.sol\":2244:2248  true */\n      0x01\n        /* \"contracts/DonateCrypto.sol\":2223:2234  newCampaign */\n      dup2\n        /* \"contracts/DonateCrypto.sol\":2223:2241  newCampaign.active */\n      0xc0\n      add\n        /* \"contracts/DonateCrypto.sol\":2223:2248  newCampaign.active = true */\n      swap1\n      iszero\n      iszero\n      swap1\n      dup2\n      iszero\n      iszero\n      dup2\n      mstore\n      pop\n      pop\n        /* \"contracts/DonateCrypto.sol\":2278:2288  msg.sender */\n      caller\n        /* \"contracts/DonateCrypto.sol\":2257:2268  newCampaign */\n      dup2\n        /* \"contracts/DonateCrypto.sol\":2257:2275  newCampaign.author */\n      0x00\n      add\n        /* \"contracts/DonateCrypto.sol\":2257:2288  newCampaign.author = msg.sender */\n      swap1\n      0xffffffffffffffffffffffffffffffffffffffff\n      and\n      swap1\n      dup2\n      0xffffffffffffffffffffffffffffffffffffffff\n      and\n      dup2\n      mstore\n      pop\n      pop\n        /* \"contracts/DonateCrypto.sol\":2333:2339  nextId */\n      0x01\n      0x00\n        /* \"contracts/DonateCrypto.sol\":2333:2341  nextId++ */\n      dup2\n      sload\n      dup1\n      swap3\n      swap2\n      swap1\n      tag_97\n      swap1\n      tag_98\n      jump\t// in\n    tag_97:\n      swap2\n      swap1\n      pop\n      sstore\n      pop\n        /* \"contracts/DonateCrypto.sol\":2370:2381  newCampaign */\n      dup1\n        /* \"contracts/DonateCrypto.sol\":2350:2359  campaigns */\n      0x02\n        /* \"contracts/DonateCrypto.sol\":2350:2367  campaigns[nextId] */\n      0x00\n        /* \"contracts/DonateCrypto.sol\":2360:2366  nextId */\n      sload(0x01)\n        /* \"contracts/DonateCrypto.sol\":2350:2367  campaigns[nextId] */\n      dup2\n      mstore\n      0x20\n      add\n      swap1\n      dup2\n      mstore\n      0x20\n      add\n      0x00\n      keccak256\n        /* \"contracts/DonateCrypto.sol\":2350:2381  campaigns[nextId] = newCampaign */\n      0x00\n      dup3\n      add\n      mload\n      dup2\n      0x00\n      add\n      exp(0x0100, 0x00)\n      dup2\n      sload\n      dup2\n      0xffffffffffffffffffffffffffffffffffffffff\n      mul\n      not\n      and\n      swap1\n      dup4\n      0xffffffffffffffffffffffffffffffffffffffff\n      and\n      mul\n      or\n      swap1\n      sstore\n      pop\n      0x20\n      dup3\n      add\n      mload\n      dup2\n      0x01\n      add\n      swap1\n      dup2\n      tag_99\n      swap2\n      swap1\n      tag_100\n      jump\t// in\n    tag_99:\n      pop\n      0x40\n      dup3\n      add\n      mload\n      dup2\n      0x02\n      add\n      swap1\n      dup2\n      tag_101\n      swap2\n      swap1\n      tag_100\n      jump\t// in\n    tag_101:\n      pop\n      0x60\n      dup3\n      add\n      mload\n      dup2\n      0x03\n      add\n      swap1\n      dup2\n      tag_102\n      swap2\n      swap1\n      tag_100\n      jump\t// in\n    tag_102:\n      pop\n      0x80\n      dup3\n      add\n      mload\n      dup2\n      0x04\n      add\n      swap1\n      dup2\n      tag_103\n      swap2\n      swap1\n      tag_100\n      jump\t// in\n    tag_103:\n      pop\n      0xa0\n      dup3\n      add\n      mload\n      dup2\n      0x05\n      add\n      sstore\n      0xc0\n      dup3\n      add\n      mload\n      dup2\n      0x06\n      add\n      exp(0x0100, 0x00)\n      dup2\n      sload\n      dup2\n      0xff\n      mul\n      not\n      and\n      swap1\n      dup4\n      iszero\n      iszero\n      mul\n      or\n      swap1\n      sstore\n      pop\n      swap1\n      pop\n      pop\n        /* \"contracts/DonateCrypto.sol\":1976:2388  {... */\n      pop\n        /* \"contracts/DonateCrypto.sol\":1843:2388  function addCampaign(string calldata tittle, string calldata description, string calldata videoUrl, string calldata imageUrl) public {... */\n      pop\n      pop\n      pop\n      pop\n      pop\n      pop\n      pop\n      pop\n      jump\t// out\n        /* \"contracts/DonateCrypto.sol\":2801:3085  function donate(uint256 id) public payable {... */\n    tag_35:\n        /* \"contracts/DonateCrypto.sol\":2874:2875  0 */\n      0x00\n        /* \"contracts/DonateCrypto.sol\":2862:2871  msg.value */\n      callvalue\n        /* \"contracts/DonateCrypto.sol\":2862:2875  msg.value > 0 */\n      gt\n        /* \"contracts/DonateCrypto.sol\":2854:2914  require(msg.value > 0, \"You must send a donation value > 0\") */\n      tag_105\n      jumpi\n      mload(0x40)\n      0x08c379a000000000000000000000000000000000000000000000000000000000\n      dup2\n      mstore\n      0x04\n      add\n      tag_106\n      swap1\n      tag_107\n      jump\t// in\n    tag_106:\n      mload(0x40)\n      dup1\n      swap2\n      sub\n      swap1\n      revert\n    tag_105:\n        /* \"contracts/DonateCrypto.sol\":2956:2960  true */\n      0x01\n        /* \"contracts/DonateCrypto.sol\":2932:2960  campaigns[id].active == true */\n      iszero\n      iszero\n        /* \"contracts/DonateCrypto.sol\":2932:2941  campaigns */\n      0x02\n        /* \"contracts/DonateCrypto.sol\":2932:2945  campaigns[id] */\n      0x00\n        /* \"contracts/DonateCrypto.sol\":2942:2944  id */\n      dup4\n        /* \"contracts/DonateCrypto.sol\":2932:2945  campaigns[id] */\n      dup2\n      mstore\n      0x20\n      add\n      swap1\n      dup2\n      mstore\n      0x20\n      add\n      0x00\n      keccak256\n        /* \"contracts/DonateCrypto.sol\":2932:2952  campaigns[id].active */\n      0x06\n      add\n      0x00\n      swap1\n      sload\n      swap1\n      0x0100\n      exp\n      swap1\n      div\n      0xff\n      and\n        /* \"contracts/DonateCrypto.sol\":2932:2960  campaigns[id].active == true */\n      iszero\n      iszero\n      eq\n        /* \"contracts/DonateCrypto.sol\":2924:2995  require(campaigns[id].active == true, \"Cannot donate to this campaign\") */\n      tag_108\n      jumpi\n      mload(0x40)\n      0x08c379a000000000000000000000000000000000000000000000000000000000\n      dup2\n      mstore\n      0x04\n      add\n      tag_109\n      swap1\n      tag_110\n      jump\t// in\n    tag_109:\n      mload(0x40)\n      dup1\n      swap2\n      sub\n      swap1\n      revert\n    tag_108:\n        /* \"contracts/DonateCrypto.sol\":3068:3077  msg.value */\n      callvalue\n        /* \"contracts/DonateCrypto.sol\":3043:3052  campaigns */\n      0x02\n        /* \"contracts/DonateCrypto.sol\":3043:3056  campaigns[id] */\n      0x00\n        /* \"contracts/DonateCrypto.sol\":3053:3055  id */\n      dup4\n        /* \"contracts/DonateCrypto.sol\":3043:3056  campaigns[id] */\n      dup2\n      mstore\n      0x20\n      add\n      swap1\n      dup2\n      mstore\n      0x20\n      add\n      0x00\n      keccak256\n        /* \"contracts/DonateCrypto.sol\":3043:3064  campaigns[id].balance */\n      0x05\n      add\n      0x00\n        /* \"contracts/DonateCrypto.sol\":3043:3077  campaigns[id].balance += msg.value */\n      dup3\n      dup3\n      sload\n      tag_111\n      swap2\n      swap1\n      tag_112\n      jump\t// in\n    tag_111:\n      swap3\n      pop\n      pop\n      dup2\n      swap1\n      sstore\n      pop\n        /* \"contracts/DonateCrypto.sol\":2801:3085  function donate(uint256 id) public payable {... */\n      pop\n      jump\t// out\n    tag_96:\n      mload(0x40)\n      dup1\n      0xe0\n      add\n      0x40\n      mstore\n      dup1\n      and(0xffffffffffffffffffffffffffffffffffffffff, 0x00)\n      dup2\n      mstore\n      0x20\n      add\n      0x60\n      dup2\n      mstore\n      0x20\n      add\n      0x60\n      dup2\n      mstore\n      0x20\n      add\n      0x60\n      dup2\n      mstore\n      0x20\n      add\n      0x60\n      dup2\n      mstore\n      0x20\n      add\n      0x00\n      dup2\n      mstore\n      0x20\n      add\n      iszero(iszero(0x00))\n      dup2\n      mstore\n      pop\n      swap1\n      jump\t// out\n        /* \"#utility.yul\":88:205   */\n    tag_114:\n        /* \"#utility.yul\":197:198   */\n      0x00\n        /* \"#utility.yul\":194:195   */\n      dup1\n        /* \"#utility.yul\":187:199   */\n      revert\n        /* \"#utility.yul\":211:328   */\n    tag_115:\n        /* \"#utility.yul\":320:321   */\n      0x00\n        /* \"#utility.yul\":317:318   */\n      dup1\n        /* \"#utility.yul\":310:322   */\n      revert\n        /* \"#utility.yul\":334:411   */\n    tag_116:\n        /* \"#utility.yul\":371:378   */\n      0x00\n        /* \"#utility.yul\":400:405   */\n      dup2\n        /* \"#utility.yul\":389:405   */\n      swap1\n      pop\n        /* \"#utility.yul\":334:411   */\n      swap2\n      swap1\n      pop\n      jump\t// out\n        /* \"#utility.yul\":417:539   */\n    tag_117:\n        /* \"#utility.yul\":490:514   */\n      tag_171\n        /* \"#utility.yul\":508:513   */\n      dup2\n        /* \"#utility.yul\":490:514   */\n      tag_116\n      jump\t// in\n    tag_171:\n        /* \"#utility.yul\":483:488   */\n      dup2\n        /* \"#utility.yul\":480:515   */\n      eq\n        /* \"#utility.yul\":470:533   */\n      tag_172\n      jumpi\n        /* \"#utility.yul\":529:530   */\n      0x00\n        /* \"#utility.yul\":526:527   */\n      dup1\n        /* \"#utility.yul\":519:531   */\n      revert\n        /* \"#utility.yul\":470:533   */\n    tag_172:\n        /* \"#utility.yul\":417:539   */\n      pop\n      jump\t// out\n        /* \"#utility.yul\":545:684   */\n    tag_118:\n        /* \"#utility.yul\":591:596   */\n      0x00\n        /* \"#utility.yul\":629:635   */\n      dup2\n        /* \"#utility.yul\":616:636   */\n      calldataload\n        /* \"#utility.yul\":607:636   */\n      swap1\n      pop\n        /* \"#utility.yul\":645:678   */\n      tag_174\n        /* \"#utility.yul\":672:677   */\n      dup2\n        /* \"#utility.yul\":645:678   */\n      tag_117\n      jump\t// in\n    tag_174:\n        /* \"#utility.yul\":545:684   */\n      swap3\n      swap2\n      pop\n      pop\n      jump\t// out\n        /* \"#utility.yul\":690:1019   */\n    tag_11:\n        /* \"#utility.yul\":749:755   */\n      0x00\n        /* \"#utility.yul\":798:800   */\n      0x20\n        /* \"#utility.yul\":786:795   */\n      dup3\n        /* \"#utility.yul\":777:784   */\n      dup5\n        /* \"#utility.yul\":773:796   */\n      sub\n        /* \"#utility.yul\":769:801   */\n      slt\n        /* \"#utility.yul\":766:885   */\n      iszero\n      tag_176\n      jumpi\n        /* \"#utility.yul\":804:883   */\n      tag_177\n      tag_114\n      jump\t// in\n    tag_177:\n        /* \"#utility.yul\":766:885   */\n    tag_176:\n        /* \"#utility.yul\":924:925   */\n      0x00\n        /* \"#utility.yul\":949:1002   */\n      tag_178\n        /* \"#utility.yul\":994:1001   */\n      dup5\n        /* \"#utility.yul\":985:991   */\n      dup3\n        /* \"#utility.yul\":974:983   */\n      dup6\n        /* \"#utility.yul\":970:992   */\n      add\n        /* \"#utility.yul\":949:1002   */\n      tag_118\n      jump\t// in\n    tag_178:\n        /* \"#utility.yul\":939:1002   */\n      swap2\n      pop\n        /* \"#utility.yul\":895:1012   */\n      pop\n        /* \"#utility.yul\":690:1019   */\n      swap3\n      swap2\n      pop\n      pop\n      jump\t// out\n        /* \"#utility.yul\":1025:1151   */\n    tag_119:\n        /* \"#utility.yul\":1062:1069   */\n      0x00\n        /* \"#utility.yul\":1102:1144   */\n      0xffffffffffffffffffffffffffffffffffffffff\n        /* \"#utility.yul\":1095:1100   */\n      dup3\n        /* \"#utility.yul\":1091:1145   */\n      and\n        /* \"#utility.yul\":1080:1145   */\n      swap1\n      pop\n        /* \"#utility.yul\":1025:1151   */\n      swap2\n      swap1\n      pop\n      jump\t// out\n        /* \"#utility.yul\":1157:1253   */\n    tag_120:\n        /* \"#utility.yul\":1194:1201   */\n      0x00\n        /* \"#utility.yul\":1223:1247   */\n      tag_181\n        /* \"#utility.yul\":1241:1246   */\n      dup3\n        /* \"#utility.yul\":1223:1247   */\n      tag_119\n      jump\t// in\n    tag_181:\n        /* \"#utility.yul\":1212:1247   */\n      swap1\n      pop\n        /* \"#utility.yul\":1157:1253   */\n      swap2\n      swap1\n      pop\n      jump\t// out\n        /* \"#utility.yul\":1259:1377   */\n    tag_121:\n        /* \"#utility.yul\":1346:1370   */\n      tag_183\n        /* \"#utility.yul\":1364:1369   */\n      dup2\n        /* \"#utility.yul\":1346:1370   */\n      tag_120\n      jump\t// in\n    tag_183:\n        /* \"#utility.yul\":1341:1344   */\n      dup3\n        /* \"#utility.yul\":1334:1371   */\n      mstore\n        /* \"#utility.yul\":1259:1377   */\n      pop\n      pop\n      jump\t// out\n        /* \"#utility.yul\":1383:1482   */\n    tag_122:\n        /* \"#utility.yul\":1435:1441   */\n      0x00\n        /* \"#utility.yul\":1469:1474   */\n      dup2\n        /* \"#utility.yul\":1463:1475   */\n      mload\n        /* \"#utility.yul\":1453:1475   */\n      swap1\n      pop\n        /* \"#utility.yul\":1383:1482   */\n      swap2\n      swap1\n      pop\n      jump\t// out\n        /* \"#utility.yul\":1488:1657   */\n    tag_123:\n        /* \"#utility.yul\":1572:1583   */\n      0x00\n        /* \"#utility.yul\":1606:1612   */\n      dup3\n        /* \"#utility.yul\":1601:1604   */\n      dup3\n        /* \"#utility.yul\":1594:1613   */\n      mstore\n        /* \"#utility.yul\":1646:1650   */\n      0x20\n        /* \"#utility.yul\":1641:1644   */\n      dup3\n        /* \"#utility.yul\":1637:1651   */\n      add\n        /* \"#utility.yul\":1622:1651   */\n      swap1\n      pop\n        /* \"#utility.yul\":1488:1657   */\n      swap3\n      swap2\n      pop\n      pop\n      jump\t// out\n        /* \"#utility.yul\":1663:1909   */\n    tag_124:\n        /* \"#utility.yul\":1744:1745   */\n      0x00\n        /* \"#utility.yul\":1754:1867   */\n    tag_187:\n        /* \"#utility.yul\":1768:1774   */\n      dup4\n        /* \"#utility.yul\":1765:1766   */\n      dup2\n        /* \"#utility.yul\":1762:1775   */\n      lt\n        /* \"#utility.yul\":1754:1867   */\n      iszero\n      tag_189\n      jumpi\n        /* \"#utility.yul\":1853:1854   */\n      dup1\n        /* \"#utility.yul\":1848:1851   */\n      dup3\n        /* \"#utility.yul\":1844:1855   */\n      add\n        /* \"#utility.yul\":1838:1856   */\n      mload\n        /* \"#utility.yul\":1834:1835   */\n      dup2\n        /* \"#utility.yul\":1829:1832   */\n      dup5\n        /* \"#utility.yul\":1825:1836   */\n      add\n        /* \"#utility.yul\":1818:1857   */\n      mstore\n        /* \"#utility.yul\":1790:1792   */\n      0x20\n        /* \"#utility.yul\":1787:1788   */\n      dup2\n        /* \"#utility.yul\":1783:1793   */\n      add\n        /* \"#utility.yul\":1778:1793   */\n      swap1\n      pop\n        /* \"#utility.yul\":1754:1867   */\n      jump(tag_187)\n    tag_189:\n        /* \"#utility.yul\":1901:1902   */\n      0x00\n        /* \"#utility.yul\":1892:1898   */\n      dup5\n        /* \"#utility.yul\":1887:1890   */\n      dup5\n        /* \"#utility.yul\":1883:1899   */\n      add\n        /* \"#utility.yul\":1876:1903   */\n      mstore\n        /* \"#utility.yul\":1725:1909   */\n      pop\n        /* \"#utility.yul\":1663:1909   */\n      pop\n      pop\n      pop\n      jump\t// out\n        /* \"#utility.yul\":1915:2017   */\n    tag_125:\n        /* \"#utility.yul\":1956:1962   */\n      0x00\n        /* \"#utility.yul\":2007:2009   */\n      0x1f\n        /* \"#utility.yul\":2003:2010   */\n      not\n        /* \"#utility.yul\":1998:2000   */\n      0x1f\n        /* \"#utility.yul\":1991:1996   */\n      dup4\n        /* \"#utility.yul\":1987:2001   */\n      add\n        /* \"#utility.yul\":1983:2011   */\n      and\n        /* \"#utility.yul\":1973:2011   */\n      swap1\n      pop\n        /* \"#utility.yul\":1915:2017   */\n      swap2\n      swap1\n      pop\n      jump\t// out\n        /* \"#utility.yul\":2023:2400   */\n    tag_126:\n        /* \"#utility.yul\":2111:2114   */\n      0x00\n        /* \"#utility.yul\":2139:2178   */\n      tag_192\n        /* \"#utility.yul\":2172:2177   */\n      dup3\n        /* \"#utility.yul\":2139:2178   */\n      tag_122\n      jump\t// in\n    tag_192:\n        /* \"#utility.yul\":2194:2265   */\n      tag_193\n        /* \"#utility.yul\":2258:2264   */\n      dup2\n        /* \"#utility.yul\":2253:2256   */\n      dup6\n        /* \"#utility.yul\":2194:2265   */\n      tag_123\n      jump\t// in\n    tag_193:\n        /* \"#utility.yul\":2187:2265   */\n      swap4\n      pop\n        /* \"#utility.yul\":2274:2339   */\n      tag_194\n        /* \"#utility.yul\":2332:2338   */\n      dup2\n        /* \"#utility.yul\":2327:2330   */\n      dup6\n        /* \"#utility.yul\":2320:2324   */\n      0x20\n        /* \"#utility.yul\":2313:2318   */\n      dup7\n        /* \"#utility.yul\":2309:2325   */\n      add\n        /* \"#utility.yul\":2274:2339   */\n      tag_124\n      jump\t// in\n    tag_194:\n        /* \"#utility.yul\":2364:2393   */\n      tag_195\n        /* \"#utility.yul\":2386:2392   */\n      dup2\n        /* \"#utility.yul\":2364:2393   */\n      tag_125\n      jump\t// in\n    tag_195:\n        /* \"#utility.yul\":2359:2362   */\n      dup5\n        /* \"#utility.yul\":2355:2394   */\n      add\n        /* \"#utility.yul\":2348:2394   */\n      swap2\n      pop\n        /* \"#utility.yul\":2115:2400   */\n      pop\n        /* \"#utility.yul\":2023:2400   */\n      swap3\n      swap2\n      pop\n      pop\n      jump\t// out\n        /* \"#utility.yul\":2406:2524   */\n    tag_127:\n        /* \"#utility.yul\":2493:2517   */\n      tag_197\n        /* \"#utility.yul\":2511:2516   */\n      dup2\n        /* \"#utility.yul\":2493:2517   */\n      tag_116\n      jump\t// in\n    tag_197:\n        /* \"#utility.yul\":2488:2491   */\n      dup3\n        /* \"#utility.yul\":2481:2518   */\n      mstore\n        /* \"#utility.yul\":2406:2524   */\n      pop\n      pop\n      jump\t// out\n        /* \"#utility.yul\":2530:2620   */\n    tag_128:\n        /* \"#utility.yul\":2564:2571   */\n      0x00\n        /* \"#utility.yul\":2607:2612   */\n      dup2\n        /* \"#utility.yul\":2600:2613   */\n      iszero\n        /* \"#utility.yul\":2593:2614   */\n      iszero\n        /* \"#utility.yul\":2582:2614   */\n      swap1\n      pop\n        /* \"#utility.yul\":2530:2620   */\n      swap2\n      swap1\n      pop\n      jump\t// out\n        /* \"#utility.yul\":2626:2735   */\n    tag_129:\n        /* \"#utility.yul\":2707:2728   */\n      tag_200\n        /* \"#utility.yul\":2722:2727   */\n      dup2\n        /* \"#utility.yul\":2707:2728   */\n      tag_128\n      jump\t// in\n    tag_200:\n        /* \"#utility.yul\":2702:2705   */\n      dup3\n        /* \"#utility.yul\":2695:2729   */\n      mstore\n        /* \"#utility.yul\":2626:2735   */\n      pop\n      pop\n      jump\t// out\n        /* \"#utility.yul\":2741:3979   */\n    tag_14:\n        /* \"#utility.yul\":3076:3080   */\n      0x00\n        /* \"#utility.yul\":3114:3117   */\n      0xe0\n        /* \"#utility.yul\":3103:3112   */\n      dup3\n        /* \"#utility.yul\":3099:3118   */\n      add\n        /* \"#utility.yul\":3091:3118   */\n      swap1\n      pop\n        /* \"#utility.yul\":3128:3199   */\n      tag_202\n        /* \"#utility.yul\":3196:3197   */\n      0x00\n        /* \"#utility.yul\":3185:3194   */\n      dup4\n        /* \"#utility.yul\":3181:3198   */\n      add\n        /* \"#utility.yul\":3172:3178   */\n      dup11\n        /* \"#utility.yul\":3128:3199   */\n      tag_121\n      jump\t// in\n    tag_202:\n        /* \"#utility.yul\":3246:3255   */\n      dup2\n        /* \"#utility.yul\":3240:3244   */\n      dup2\n        /* \"#utility.yul\":3236:3256   */\n      sub\n        /* \"#utility.yul\":3231:3233   */\n      0x20\n        /* \"#utility.yul\":3220:3229   */\n      dup4\n        /* \"#utility.yul\":3216:3234   */\n      add\n        /* \"#utility.yul\":3209:3257   */\n      mstore\n        /* \"#utility.yul\":3274:3352   */\n      tag_203\n        /* \"#utility.yul\":3347:3351   */\n      dup2\n        /* \"#utility.yul\":3338:3344   */\n      dup10\n        /* \"#utility.yul\":3274:3352   */\n      tag_126\n      jump\t// in\n    tag_203:\n        /* \"#utility.yul\":3266:3352   */\n      swap1\n      pop\n        /* \"#utility.yul\":3399:3408   */\n      dup2\n        /* \"#utility.yul\":3393:3397   */\n      dup2\n        /* \"#utility.yul\":3389:3409   */\n      sub\n        /* \"#utility.yul\":3384:3386   */\n      0x40\n        /* \"#utility.yul\":3373:3382   */\n      dup4\n        /* \"#utility.yul\":3369:3387   */\n      add\n        /* \"#utility.yul\":3362:3410   */\n      mstore\n        /* \"#utility.yul\":3427:3505   */\n      tag_204\n        /* \"#utility.yul\":3500:3504   */\n      dup2\n        /* \"#utility.yul\":3491:3497   */\n      dup9\n        /* \"#utility.yul\":3427:3505   */\n      tag_126\n      jump\t// in\n    tag_204:\n        /* \"#utility.yul\":3419:3505   */\n      swap1\n      pop\n        /* \"#utility.yul\":3552:3561   */\n      dup2\n        /* \"#utility.yul\":3546:3550   */\n      dup2\n        /* \"#utility.yul\":3542:3562   */\n      sub\n        /* \"#utility.yul\":3537:3539   */\n      0x60\n        /* \"#utility.yul\":3526:3535   */\n      dup4\n        /* \"#utility.yul\":3522:3540   */\n      add\n        /* \"#utility.yul\":3515:3563   */\n      mstore\n        /* \"#utility.yul\":3580:3658   */\n      tag_205\n        /* \"#utility.yul\":3653:3657   */\n      dup2\n        /* \"#utility.yul\":3644:3650   */\n      dup8\n        /* \"#utility.yul\":3580:3658   */\n      tag_126\n      jump\t// in\n    tag_205:\n        /* \"#utility.yul\":3572:3658   */\n      swap1\n      pop\n        /* \"#utility.yul\":3706:3715   */\n      dup2\n        /* \"#utility.yul\":3700:3704   */\n      dup2\n        /* \"#utility.yul\":3696:3716   */\n      sub\n        /* \"#utility.yul\":3690:3693   */\n      0x80\n        /* \"#utility.yul\":3679:3688   */\n      dup4\n        /* \"#utility.yul\":3675:3694   */\n      add\n        /* \"#utility.yul\":3668:3717   */\n      mstore\n        /* \"#utility.yul\":3734:3812   */\n      tag_206\n        /* \"#utility.yul\":3807:3811   */\n      dup2\n        /* \"#utility.yul\":3798:3804   */\n      dup7\n        /* \"#utility.yul\":3734:3812   */\n      tag_126\n      jump\t// in\n    tag_206:\n        /* \"#utility.yul\":3726:3812   */\n      swap1\n      pop\n        /* \"#utility.yul\":3822:3895   */\n      tag_207\n        /* \"#utility.yul\":3890:3893   */\n      0xa0\n        /* \"#utility.yul\":3879:3888   */\n      dup4\n        /* \"#utility.yul\":3875:3894   */\n      add\n        /* \"#utility.yul\":3866:3872   */\n      dup6\n        /* \"#utility.yul\":3822:3895   */\n      tag_127\n      jump\t// in\n    tag_207:\n        /* \"#utility.yul\":3905:3972   */\n      tag_208\n        /* \"#utility.yul\":3967:3970   */\n      0xc0\n        /* \"#utility.yul\":3956:3965   */\n      dup4\n        /* \"#utility.yul\":3952:3971   */\n      add\n        /* \"#utility.yul\":3943:3949   */\n      dup5\n        /* \"#utility.yul\":3905:3972   */\n      tag_129\n      jump\t// in\n    tag_208:\n        /* \"#utility.yul\":2741:3979   */\n      swap9\n      swap8\n      pop\n      pop\n      pop\n      pop\n      pop\n      pop\n      pop\n      pop\n      jump\t// out\n        /* \"#utility.yul\":3985:4207   */\n    tag_23:\n        /* \"#utility.yul\":4078:4082   */\n      0x00\n        /* \"#utility.yul\":4116:4118   */\n      0x20\n        /* \"#utility.yul\":4105:4114   */\n      dup3\n        /* \"#utility.yul\":4101:4119   */\n      add\n        /* \"#utility.yul\":4093:4119   */\n      swap1\n      pop\n        /* \"#utility.yul\":4129:4200   */\n      tag_210\n        /* \"#utility.yul\":4197:4198   */\n      0x00\n        /* \"#utility.yul\":4186:4195   */\n      dup4\n        /* \"#utility.yul\":4182:4199   */\n      add\n        /* \"#utility.yul\":4173:4179   */\n      dup5\n        /* \"#utility.yul\":4129:4200   */\n      tag_127\n      jump\t// in\n    tag_210:\n        /* \"#utility.yul\":3985:4207   */\n      swap3\n      swap2\n      pop\n      pop\n      jump\t// out\n        /* \"#utility.yul\":4213:4330   */\n    tag_130:\n        /* \"#utility.yul\":4322:4323   */\n      0x00\n        /* \"#utility.yul\":4319:4320   */\n      dup1\n        /* \"#utility.yul\":4312:4324   */\n      revert\n        /* \"#utility.yul\":4336:4453   */\n    tag_131:\n        /* \"#utility.yul\":4445:4446   */\n      0x00\n        /* \"#utility.yul\":4442:4443   */\n      dup1\n        /* \"#utility.yul\":4435:4447   */\n      revert\n        /* \"#utility.yul\":4459:4576   */\n    tag_132:\n        /* \"#utility.yul\":4568:4569   */\n      0x00\n        /* \"#utility.yul\":4565:4566   */\n      dup1\n        /* \"#utility.yul\":4558:4570   */\n      revert\n        /* \"#utility.yul\":4596:5149   */\n    tag_133:\n        /* \"#utility.yul\":4654:4662   */\n      0x00\n        /* \"#utility.yul\":4664:4670   */\n      dup1\n        /* \"#utility.yul\":4714:4717   */\n      dup4\n        /* \"#utility.yul\":4707:4711   */\n      0x1f\n        /* \"#utility.yul\":4699:4705   */\n      dup5\n        /* \"#utility.yul\":4695:4712   */\n      add\n        /* \"#utility.yul\":4691:4718   */\n      slt\n        /* \"#utility.yul\":4681:4803   */\n      tag_215\n      jumpi\n        /* \"#utility.yul\":4722:4801   */\n      tag_216\n      tag_130\n      jump\t// in\n    tag_216:\n        /* \"#utility.yul\":4681:4803   */\n    tag_215:\n        /* \"#utility.yul\":4835:4841   */\n      dup3\n        /* \"#utility.yul\":4822:4842   */\n      calldataload\n        /* \"#utility.yul\":4812:4842   */\n      swap1\n      pop\n        /* \"#utility.yul\":4865:4883   */\n      0xffffffffffffffff\n        /* \"#utility.yul\":4857:4863   */\n      dup2\n        /* \"#utility.yul\":4854:4884   */\n      gt\n        /* \"#utility.yul\":4851:4968   */\n      iszero\n      tag_217\n      jumpi\n        /* \"#utility.yul\":4887:4966   */\n      tag_218\n      tag_131\n      jump\t// in\n    tag_218:\n        /* \"#utility.yul\":4851:4968   */\n    tag_217:\n        /* \"#utility.yul\":5001:5005   */\n      0x20\n        /* \"#utility.yul\":4993:4999   */\n      dup4\n        /* \"#utility.yul\":4989:5006   */\n      add\n        /* \"#utility.yul\":4977:5006   */\n      swap2\n      pop\n        /* \"#utility.yul\":5055:5058   */\n      dup4\n        /* \"#utility.yul\":5047:5051   */\n      0x01\n        /* \"#utility.yul\":5039:5045   */\n      dup3\n        /* \"#utility.yul\":5035:5052   */\n      mul\n        /* \"#utility.yul\":5025:5033   */\n      dup4\n        /* \"#utility.yul\":5021:5053   */\n      add\n        /* \"#utility.yul\":5018:5059   */\n      gt\n        /* \"#utility.yul\":5015:5143   */\n      iszero\n      tag_219\n      jumpi\n        /* \"#utility.yul\":5062:5141   */\n      tag_220\n      tag_132\n      jump\t// in\n    tag_220:\n        /* \"#utility.yul\":5015:5143   */\n    tag_219:\n        /* \"#utility.yul\":4596:5149   */\n      swap3\n      pop\n      swap3\n      swap1\n      pop\n      jump\t// out\n        /* \"#utility.yul\":5155:6720   */\n    tag_31:\n        /* \"#utility.yul\":5289:5295   */\n      0x00\n        /* \"#utility.yul\":5297:5303   */\n      dup1\n        /* \"#utility.yul\":5305:5311   */\n      0x00\n        /* \"#utility.yul\":5313:5319   */\n      dup1\n        /* \"#utility.yul\":5321:5327   */\n      0x00\n        /* \"#utility.yul\":5329:5335   */\n      dup1\n        /* \"#utility.yul\":5337:5343   */\n      0x00\n        /* \"#utility.yul\":5345:5351   */\n      dup1\n        /* \"#utility.yul\":5394:5397   */\n      0x80\n        /* \"#utility.yul\":5382:5391   */\n      dup10\n        /* \"#utility.yul\":5373:5380   */\n      dup12\n        /* \"#utility.yul\":5369:5392   */\n      sub\n        /* \"#utility.yul\":5365:5398   */\n      slt\n        /* \"#utility.yul\":5362:5482   */\n      iszero\n      tag_222\n      jumpi\n        /* \"#utility.yul\":5401:5480   */\n      tag_223\n      tag_114\n      jump\t// in\n    tag_223:\n        /* \"#utility.yul\":5362:5482   */\n    tag_222:\n        /* \"#utility.yul\":5549:5550   */\n      0x00\n        /* \"#utility.yul\":5538:5547   */\n      dup10\n        /* \"#utility.yul\":5534:5551   */\n      add\n        /* \"#utility.yul\":5521:5552   */\n      calldataload\n        /* \"#utility.yul\":5579:5597   */\n      0xffffffffffffffff\n        /* \"#utility.yul\":5571:5577   */\n      dup2\n        /* \"#utility.yul\":5568:5598   */\n      gt\n        /* \"#utility.yul\":5565:5682   */\n      iszero\n      tag_224\n      jumpi\n        /* \"#utility.yul\":5601:5680   */\n      tag_225\n      tag_115\n      jump\t// in\n    tag_225:\n        /* \"#utility.yul\":5565:5682   */\n    tag_224:\n        /* \"#utility.yul\":5714:5779   */\n      tag_226\n        /* \"#utility.yul\":5771:5778   */\n      dup12\n        /* \"#utility.yul\":5762:5768   */\n      dup3\n        /* \"#utility.yul\":5751:5760   */\n      dup13\n        /* \"#utility.yul\":5747:5769   */\n      add\n        /* \"#utility.yul\":5714:5779   */\n      tag_133\n      jump\t// in\n    tag_226:\n        /* \"#utility.yul\":5696:5779   */\n      swap9\n      pop\n      swap9\n      pop\n        /* \"#utility.yul\":5492:5789   */\n      pop\n        /* \"#utility.yul\":5856:5858   */\n      0x20\n        /* \"#utility.yul\":5845:5854   */\n      dup10\n        /* \"#utility.yul\":5841:5859   */\n      add\n        /* \"#utility.yul\":5828:5860   */\n      calldataload\n        /* \"#utility.yul\":5887:5905   */\n      0xffffffffffffffff\n        /* \"#utility.yul\":5879:5885   */\n      dup2\n        /* \"#utility.yul\":5876:5906   */\n      gt\n        /* \"#utility.yul\":5873:5990   */\n      iszero\n      tag_227\n      jumpi\n        /* \"#utility.yul\":5909:5988   */\n      tag_228\n      tag_115\n      jump\t// in\n    tag_228:\n        /* \"#utility.yul\":5873:5990   */\n    tag_227:\n        /* \"#utility.yul\":6022:6087   */\n      tag_229\n        /* \"#utility.yul\":6079:6086   */\n      dup12\n        /* \"#utility.yul\":6070:6076   */\n      dup3\n        /* \"#utility.yul\":6059:6068   */\n      dup13\n        /* \"#utility.yul\":6055:6077   */\n      add\n        /* \"#utility.yul\":6022:6087   */\n      tag_133\n      jump\t// in\n    tag_229:\n        /* \"#utility.yul\":6004:6087   */\n      swap7\n      pop\n      swap7\n      pop\n        /* \"#utility.yul\":5799:6097   */\n      pop\n        /* \"#utility.yul\":6164:6166   */\n      0x40\n        /* \"#utility.yul\":6153:6162   */\n      dup10\n        /* \"#utility.yul\":6149:6167   */\n      add\n        /* \"#utility.yul\":6136:6168   */\n      calldataload\n        /* \"#utility.yul\":6195:6213   */\n      0xffffffffffffffff\n        /* \"#utility.yul\":6187:6193   */\n      dup2\n        /* \"#utility.yul\":6184:6214   */\n      gt\n        /* \"#utility.yul\":6181:6298   */\n      iszero\n      tag_230\n      jumpi\n        /* \"#utility.yul\":6217:6296   */\n      tag_231\n      tag_115\n      jump\t// in\n    tag_231:\n        /* \"#utility.yul\":6181:6298   */\n    tag_230:\n        /* \"#utility.yul\":6330:6395   */\n      tag_232\n        /* \"#utility.yul\":6387:6394   */\n      dup12\n        /* \"#utility.yul\":6378:6384   */\n      dup3\n        /* \"#utility.yul\":6367:6376   */\n      dup13\n        /* \"#utility.yul\":6363:6385   */\n      add\n        /* \"#utility.yul\":6330:6395   */\n      tag_133\n      jump\t// in\n    tag_232:\n        /* \"#utility.yul\":6312:6395   */\n      swap5\n      pop\n      swap5\n      pop\n        /* \"#utility.yul\":6107:6405   */\n      pop\n        /* \"#utility.yul\":6472:6474   */\n      0x60\n        /* \"#utility.yul\":6461:6470   */\n      dup10\n        /* \"#utility.yul\":6457:6475   */\n      add\n        /* \"#utility.yul\":6444:6476   */\n      calldataload\n        /* \"#utility.yul\":6503:6521   */\n      0xffffffffffffffff\n        /* \"#utility.yul\":6495:6501   */\n      dup2\n        /* \"#utility.yul\":6492:6522   */\n      gt\n        /* \"#utility.yul\":6489:6606   */\n      iszero\n      tag_233\n      jumpi\n        /* \"#utility.yul\":6525:6604   */\n      tag_234\n      tag_115\n      jump\t// in\n    tag_234:\n        /* \"#utility.yul\":6489:6606   */\n    tag_233:\n        /* \"#utility.yul\":6638:6703   */\n      tag_235\n        /* \"#utility.yul\":6695:6702   */\n      dup12\n        /* \"#utility.yul\":6686:6692   */\n      dup3\n        /* \"#utility.yul\":6675:6684   */\n      dup13\n        /* \"#utility.yul\":6671:6693   */\n      add\n        /* \"#utility.yul\":6638:6703   */\n      tag_133\n      jump\t// in\n    tag_235:\n        /* \"#utility.yul\":6620:6703   */\n      swap3\n      pop\n      swap3\n      pop\n        /* \"#utility.yul\":6415:6713   */\n      pop\n        /* \"#utility.yul\":5155:6720   */\n      swap3\n      swap6\n      swap9\n      pop\n      swap3\n      swap6\n      swap9\n      swap1\n      swap4\n      swap7\n      pop\n      jump\t// out\n        /* \"#utility.yul\":6726:6906   */\n    tag_134:\n        /* \"#utility.yul\":6774:6851   */\n      0x4e487b7100000000000000000000000000000000000000000000000000000000\n        /* \"#utility.yul\":6771:6772   */\n      0x00\n        /* \"#utility.yul\":6764:6852   */\n      mstore\n        /* \"#utility.yul\":6871:6875   */\n      0x22\n        /* \"#utility.yul\":6868:6869   */\n      0x04\n        /* \"#utility.yul\":6861:6876   */\n      mstore\n        /* \"#utility.yul\":6895:6899   */\n      0x24\n        /* \"#utility.yul\":6892:6893   */\n      0x00\n        /* \"#utility.yul\":6885:6900   */\n      revert\n        /* \"#utility.yul\":6912:7232   */\n    tag_37:\n        /* \"#utility.yul\":6956:6962   */\n      0x00\n        /* \"#utility.yul\":6993:6994   */\n      0x02\n        /* \"#utility.yul\":6987:6991   */\n      dup3\n        /* \"#utility.yul\":6983:6995   */\n      div\n        /* \"#utility.yul\":6973:6995   */\n      swap1\n      pop\n        /* \"#utility.yul\":7040:7041   */\n      0x01\n        /* \"#utility.yul\":7034:7038   */\n      dup3\n        /* \"#utility.yul\":7030:7042   */\n      and\n        /* \"#utility.yul\":7061:7079   */\n      dup1\n        /* \"#utility.yul\":7051:7132   */\n      tag_238\n      jumpi\n        /* \"#utility.yul\":7117:7121   */\n      0x7f\n        /* \"#utility.yul\":7109:7115   */\n      dup3\n        /* \"#utility.yul\":7105:7122   */\n      and\n        /* \"#utility.yul\":7095:7122   */\n      swap2\n      pop\n        /* \"#utility.yul\":7051:7132   */\n    tag_238:\n        /* \"#utility.yul\":7179:7181   */\n      0x20\n        /* \"#utility.yul\":7171:7177   */\n      dup3\n        /* \"#utility.yul\":7168:7182   */\n      lt\n        /* \"#utility.yul\":7148:7166   */\n      dup2\n        /* \"#utility.yul\":7145:7183   */\n      sub\n        /* \"#utility.yul\":7142:7226   */\n      tag_239\n      jumpi\n        /* \"#utility.yul\":7198:7216   */\n      tag_240\n      tag_134\n      jump\t// in\n    tag_240:\n        /* \"#utility.yul\":7142:7226   */\n    tag_239:\n        /* \"#utility.yul\":6963:7232   */\n      pop\n        /* \"#utility.yul\":6912:7232   */\n      swap2\n      swap1\n      pop\n      jump\t// out\n        /* \"#utility.yul\":7238:7414   */\n    tag_135:\n        /* \"#utility.yul\":7378:7406   */\n      0x596f7520646f206e6f742068617665207065726d697373696f6e000000000000\n        /* \"#utility.yul\":7374:7375   */\n      0x00\n        /* \"#utility.yul\":7366:7372   */\n      dup3\n        /* \"#utility.yul\":7362:7376   */\n      add\n        /* \"#utility.yul\":7355:7407   */\n      mstore\n        /* \"#utility.yul\":7238:7414   */\n      pop\n      jump\t// out\n        /* \"#utility.yul\":7420:7786   */\n    tag_136:\n        /* \"#utility.yul\":7562:7565   */\n      0x00\n        /* \"#utility.yul\":7583:7650   */\n      tag_243\n        /* \"#utility.yul\":7647:7649   */\n      0x1a\n        /* \"#utility.yul\":7642:7645   */\n      dup4\n        /* \"#utility.yul\":7583:7650   */\n      tag_123\n      jump\t// in\n    tag_243:\n        /* \"#utility.yul\":7576:7650   */\n      swap2\n      pop\n        /* \"#utility.yul\":7659:7752   */\n      tag_244\n        /* \"#utility.yul\":7748:7751   */\n      dup3\n        /* \"#utility.yul\":7659:7752   */\n      tag_135\n      jump\t// in\n    tag_244:\n        /* \"#utility.yul\":7777:7779   */\n      0x20\n        /* \"#utility.yul\":7772:7775   */\n      dup3\n        /* \"#utility.yul\":7768:7780   */\n      add\n        /* \"#utility.yul\":7761:7780   */\n      swap1\n      pop\n        /* \"#utility.yul\":7420:7786   */\n      swap2\n      swap1\n      pop\n      jump\t// out\n        /* \"#utility.yul\":7792:8211   */\n    tag_80:\n        /* \"#utility.yul\":7958:7962   */\n      0x00\n        /* \"#utility.yul\":7996:7998   */\n      0x20\n        /* \"#utility.yul\":7985:7994   */\n      dup3\n        /* \"#utility.yul\":7981:7999   */\n      add\n        /* \"#utility.yul\":7973:7999   */\n      swap1\n      pop\n        /* \"#utility.yul\":8045:8054   */\n      dup2\n        /* \"#utility.yul\":8039:8043   */\n      dup2\n        /* \"#utility.yul\":8035:8055   */\n      sub\n        /* \"#utility.yul\":8031:8032   */\n      0x00\n        /* \"#utility.yul\":8020:8029   */\n      dup4\n        /* \"#utility.yul\":8016:8033   */\n      add\n        /* \"#utility.yul\":8009:8056   */\n      mstore\n        /* \"#utility.yul\":8073:8204   */\n      tag_246\n        /* \"#utility.yul\":8199:8203   */\n      dup2\n        /* \"#utility.yul\":8073:8204   */\n      tag_136\n      jump\t// in\n    tag_246:\n        /* \"#utility.yul\":8065:8204   */\n      swap1\n      pop\n        /* \"#utility.yul\":7792:8211   */\n      swap2\n      swap1\n      pop\n      jump\t// out\n        /* \"#utility.yul\":8217:8390   */\n    tag_137:\n        /* \"#utility.yul\":8357:8382   */\n      0x546869732063616d706169676e20697320636c6f736564000000000000000000\n        /* \"#utility.yul\":8353:8354   */\n      0x00\n        /* \"#utility.yul\":8345:8351   */\n      dup3\n        /* \"#utility.yul\":8341:8355   */\n      add\n        /* \"#utility.yul\":8334:8383   */\n      mstore\n        /* \"#utility.yul\":8217:8390   */\n      pop\n      jump\t// out\n        /* \"#utility.yul\":8396:8762   */\n    tag_138:\n        /* \"#utility.yul\":8538:8541   */\n      0x00\n        /* \"#utility.yul\":8559:8626   */\n      tag_249\n        /* \"#utility.yul\":8623:8625   */\n      0x17\n        /* \"#utility.yul\":8618:8621   */\n      dup4\n        /* \"#utility.yul\":8559:8626   */\n      tag_123\n      jump\t// in\n    tag_249:\n        /* \"#utility.yul\":8552:8626   */\n      swap2\n      pop\n        /* \"#utility.yul\":8635:8728   */\n      tag_250\n        /* \"#utility.yul\":8724:8727   */\n      dup3\n        /* \"#utility.yul\":8635:8728   */\n      tag_137\n      jump\t// in\n    tag_250:\n        /* \"#utility.yul\":8753:8755   */\n      0x20\n        /* \"#utility.yul\":8748:8751   */\n      dup3\n        /* \"#utility.yul\":8744:8756   */\n      add\n        /* \"#utility.yul\":8737:8756   */\n      swap1\n      pop\n        /* \"#utility.yul\":8396:8762   */\n      swap2\n      swap1\n      pop\n      jump\t// out\n        /* \"#utility.yul\":8768:9187   */\n    tag_83:\n        /* \"#utility.yul\":8934:8938   */\n      0x00\n        /* \"#utility.yul\":8972:8974   */\n      0x20\n        /* \"#utility.yul\":8961:8970   */\n      dup3\n        /* \"#utility.yul\":8957:8975   */\n      add\n        /* \"#utility.yul\":8949:8975   */\n      swap1\n      pop\n        /* \"#utility.yul\":9021:9030   */\n      dup2\n        /* \"#utility.yul\":9015:9019   */\n      dup2\n        /* \"#utility.yul\":9011:9031   */\n      sub\n        /* \"#utility.yul\":9007:9008   */\n      0x00\n        /* \"#utility.yul\":8996:9005   */\n      dup4\n        /* \"#utility.yul\":8992:9009   */\n      add\n        /* \"#utility.yul\":8985:9032   */\n      mstore\n        /* \"#utility.yul\":9049:9180   */\n      tag_252\n        /* \"#utility.yul\":9175:9179   */\n      dup2\n        /* \"#utility.yul\":9049:9180   */\n      tag_138\n      jump\t// in\n    tag_252:\n        /* \"#utility.yul\":9041:9180   */\n      swap1\n      pop\n        /* \"#utility.yul\":8768:9187   */\n      swap2\n      swap1\n      pop\n      jump\t// out\n        /* \"#utility.yul\":9193:9422   */\n    tag_139:\n        /* \"#utility.yul\":9333:9367   */\n      0x546869732063616d706169676e20646f6573206e6f74206861766520656e6f75\n        /* \"#utility.yul\":9329:9330   */\n      0x00\n        /* \"#utility.yul\":9321:9327   */\n      dup3\n        /* \"#utility.yul\":9317:9331   */\n      add\n        /* \"#utility.yul\":9310:9368   */\n      mstore\n        /* \"#utility.yul\":9402:9414   */\n      0x67682062616c616e636500000000000000000000000000000000000000000000\n        /* \"#utility.yul\":9397:9399   */\n      0x20\n        /* \"#utility.yul\":9389:9395   */\n      dup3\n        /* \"#utility.yul\":9385:9400   */\n      add\n        /* \"#utility.yul\":9378:9415   */\n      mstore\n        /* \"#utility.yul\":9193:9422   */\n      pop\n      jump\t// out\n        /* \"#utility.yul\":9428:9794   */\n    tag_140:\n        /* \"#utility.yul\":9570:9573   */\n      0x00\n        /* \"#utility.yul\":9591:9658   */\n      tag_255\n        /* \"#utility.yul\":9655:9657   */\n      0x2a\n        /* \"#utility.yul\":9650:9653   */\n      dup4\n        /* \"#utility.yul\":9591:9658   */\n      tag_123\n      jump\t// in\n    tag_255:\n        /* \"#utility.yul\":9584:9658   */\n      swap2\n      pop\n        /* \"#utility.yul\":9667:9760   */\n      tag_256\n        /* \"#utility.yul\":9756:9759   */\n      dup3\n        /* \"#utility.yul\":9667:9760   */\n      tag_139\n      jump\t// in\n    tag_256:\n        /* \"#utility.yul\":9785:9787   */\n      0x40\n        /* \"#utility.yul\":9780:9783   */\n      dup3\n        /* \"#utility.yul\":9776:9788   */\n      add\n        /* \"#utility.yul\":9769:9788   */\n      swap1\n      pop\n        /* \"#utility.yul\":9428:9794   */\n      swap2\n      swap1\n      pop\n      jump\t// out\n        /* \"#utility.yul\":9800:10219   */\n    tag_86:\n        /* \"#utility.yul\":9966:9970   */\n      0x00\n        /* \"#utility.yul\":10004:10006   */\n      0x20\n        /* \"#utility.yul\":9993:10002   */\n      dup3\n        /* \"#utility.yul\":9989:10007   */\n      add\n        /* \"#utility.yul\":9981:10007   */\n      swap1\n      pop\n        /* \"#utility.yul\":10053:10062   */\n      dup2\n        /* \"#utility.yul\":10047:10051   */\n      dup2\n        /* \"#utility.yul\":10043:10063   */\n      sub\n        /* \"#utility.yul\":10039:10040   */\n      0x00\n        /* \"#utility.yul\":10028:10037   */\n      dup4\n        /* \"#utility.yul\":10024:10041   */\n      add\n        /* \"#utility.yul\":10017:10064   */\n      mstore\n        /* \"#utility.yul\":10081:10212   */\n      tag_258\n        /* \"#utility.yul\":10207:10211   */\n      dup2\n        /* \"#utility.yul\":10081:10212   */\n      tag_140\n      jump\t// in\n    tag_258:\n        /* \"#utility.yul\":10073:10212   */\n      swap1\n      pop\n        /* \"#utility.yul\":9800:10219   */\n      swap2\n      swap1\n      pop\n      jump\t// out\n        /* \"#utility.yul\":10225:10405   */\n    tag_141:\n        /* \"#utility.yul\":10273:10350   */\n      0x4e487b7100000000000000000000000000000000000000000000000000000000\n        /* \"#utility.yul\":10270:10271   */\n      0x00\n        /* \"#utility.yul\":10263:10351   */\n      mstore\n        /* \"#utility.yul\":10370:10374   */\n      0x11\n        /* \"#utility.yul\":10367:10368   */\n      0x04\n        /* \"#utility.yul\":10360:10375   */\n      mstore\n        /* \"#utility.yul\":10394:10398   */\n      0x24\n        /* \"#utility.yul\":10391:10392   */\n      0x00\n        /* \"#utility.yul\":10384:10399   */\n      revert\n        /* \"#utility.yul\":10411:10605   */\n    tag_88:\n        /* \"#utility.yul\":10451:10455   */\n      0x00\n        /* \"#utility.yul\":10471:10491   */\n      tag_261\n        /* \"#utility.yul\":10489:10490   */\n      dup3\n        /* \"#utility.yul\":10471:10491   */\n      tag_116\n      jump\t// in\n    tag_261:\n        /* \"#utility.yul\":10466:10491   */\n      swap2\n      pop\n        /* \"#utility.yul\":10505:10525   */\n      tag_262\n        /* \"#utility.yul\":10523:10524   */\n      dup4\n        /* \"#utility.yul\":10505:10525   */\n      tag_116\n      jump\t// in\n    tag_262:\n        /* \"#utility.yul\":10500:10525   */\n      swap3\n      pop\n        /* \"#utility.yul\":10549:10550   */\n      dup3\n        /* \"#utility.yul\":10546:10547   */\n      dup3\n        /* \"#utility.yul\":10542:10551   */\n      sub\n        /* \"#utility.yul\":10534:10551   */\n      swap1\n      pop\n        /* \"#utility.yul\":10573:10574   */\n      dup2\n        /* \"#utility.yul\":10567:10571   */\n      dup2\n        /* \"#utility.yul\":10564:10575   */\n      gt\n        /* \"#utility.yul\":10561:10598   */\n      iszero\n      tag_263\n      jumpi\n        /* \"#utility.yul\":10578:10596   */\n      tag_264\n      tag_141\n      jump\t// in\n    tag_264:\n        /* \"#utility.yul\":10561:10598   */\n    tag_263:\n        /* \"#utility.yul\":10411:10605   */\n      swap3\n      swap2\n      pop\n      pop\n      jump\t// out\n        /* \"#utility.yul\":10611:10758   */\n    tag_142:\n        /* \"#utility.yul\":10712:10723   */\n      0x00\n        /* \"#utility.yul\":10749:10752   */\n      dup2\n        /* \"#utility.yul\":10734:10752   */\n      swap1\n      pop\n        /* \"#utility.yul\":10611:10758   */\n      swap3\n      swap2\n      pop\n      pop\n      jump\t// out\n        /* \"#utility.yul\":10764:10878   */\n    tag_143:\n      pop\n      jump\t// out\n        /* \"#utility.yul\":10884:11282   */\n    tag_144:\n        /* \"#utility.yul\":11043:11046   */\n      0x00\n        /* \"#utility.yul\":11064:11147   */\n      tag_268\n        /* \"#utility.yul\":11145:11146   */\n      0x00\n        /* \"#utility.yul\":11140:11143   */\n      dup4\n        /* \"#utility.yul\":11064:11147   */\n      tag_142\n      jump\t// in\n    tag_268:\n        /* \"#utility.yul\":11057:11147   */\n      swap2\n      pop\n        /* \"#utility.yul\":11156:11249   */\n      tag_269\n        /* \"#utility.yul\":11245:11248   */\n      dup3\n        /* \"#utility.yul\":11156:11249   */\n      tag_143\n      jump\t// in\n    tag_269:\n        /* \"#utility.yul\":11274:11275   */\n      0x00\n        /* \"#utility.yul\":11269:11272   */\n      dup3\n        /* \"#utility.yul\":11265:11276   */\n      add\n        /* \"#utility.yul\":11258:11276   */\n      swap1\n      pop\n        /* \"#utility.yul\":10884:11282   */\n      swap2\n      swap1\n      pop\n      jump\t// out\n        /* \"#utility.yul\":11288:11667   */\n    tag_90:\n        /* \"#utility.yul\":11472:11475   */\n      0x00\n        /* \"#utility.yul\":11494:11641   */\n      tag_271\n        /* \"#utility.yul\":11637:11640   */\n      dup3\n        /* \"#utility.yul\":11494:11641   */\n      tag_144\n      jump\t// in\n    tag_271:\n        /* \"#utility.yul\":11487:11641   */\n      swap2\n      pop\n        /* \"#utility.yul\":11658:11661   */\n      dup2\n        /* \"#utility.yul\":11651:11661   */\n      swap1\n      pop\n        /* \"#utility.yul\":11288:11667   */\n      swap2\n      swap1\n      pop\n      jump\t// out\n        /* \"#utility.yul\":11673:11906   */\n    tag_98:\n        /* \"#utility.yul\":11712:11715   */\n      0x00\n        /* \"#utility.yul\":11735:11759   */\n      tag_273\n        /* \"#utility.yul\":11753:11758   */\n      dup3\n        /* \"#utility.yul\":11735:11759   */\n      tag_116\n      jump\t// in\n    tag_273:\n        /* \"#utility.yul\":11726:11759   */\n      swap2\n      pop\n        /* \"#utility.yul\":11781:11847   */\n      0xffffffffffffffffffffffffffffffffffffffffffffffffffffffffffffffff\n        /* \"#utility.yul\":11774:11779   */\n      dup3\n        /* \"#utility.yul\":11771:11848   */\n      sub\n        /* \"#utility.yul\":11768:11871   */\n      tag_274\n      jumpi\n        /* \"#utility.yul\":11851:11869   */\n      tag_275\n      tag_141\n      jump\t// in\n    tag_275:\n        /* \"#utility.yul\":11768:11871   */\n    tag_274:\n        /* \"#utility.yul\":11898:11899   */\n      0x01\n        /* \"#utility.yul\":11891:11896   */\n      dup3\n        /* \"#utility.yul\":11887:11900   */\n      add\n        /* \"#utility.yul\":11880:11900   */\n      swap1\n      pop\n        /* \"#utility.yul\":11673:11906   */\n      swap2\n      swap1\n      pop\n      jump\t// out\n        /* \"#utility.yul\":11912:12092   */\n    tag_145:\n        /* \"#utility.yul\":11960:12037   */\n      0x4e487b7100000000000000000000000000000000000000000000000000000000\n        /* \"#utility.yul\":11957:11958   */\n      0x00\n        /* \"#utility.yul\":11950:12038   */\n      mstore\n        /* \"#utility.yul\":12057:12061   */\n      0x41\n        /* \"#utility.yul\":12054:12055   */\n      0x04\n        /* \"#utility.yul\":12047:12062   */\n      mstore\n        /* \"#utility.yul\":12081:12085   */\n      0x24\n        /* \"#utility.yul\":12078:12079   */\n      0x00\n        /* \"#utility.yul\":12071:12086   */\n      revert\n        /* \"#utility.yul\":12098:12239   */\n    tag_146:\n        /* \"#utility.yul\":12147:12151   */\n      0x00\n        /* \"#utility.yul\":12170:12173   */\n      dup2\n        /* \"#utility.yul\":12162:12173   */\n      swap1\n      pop\n        /* \"#utility.yul\":12193:12196   */\n      dup2\n        /* \"#utility.yul\":12190:12191   */\n      0x00\n        /* \"#utility.yul\":12183:12197   */\n      mstore\n        /* \"#utility.yul\":12227:12231   */\n      0x20\n        /* \"#utility.yul\":12224:12225   */\n      0x00\n        /* \"#utility.yul\":12214:12232   */\n      keccak256\n        /* \"#utility.yul\":12206:12232   */\n      swap1\n      pop\n        /* \"#utility.yul\":12098:12239   */\n      swap2\n      swap1\n      pop\n      jump\t// out\n        /* \"#utility.yul\":12245:12338   */\n    tag_147:\n        /* \"#utility.yul\":12282:12288   */\n      0x00\n        /* \"#utility.yul\":12329:12331   */\n      0x20\n        /* \"#utility.yul\":12324:12326   */\n      0x1f\n        /* \"#utility.yul\":12317:12322   */\n      dup4\n        /* \"#utility.yul\":12313:12327   */\n      add\n        /* \"#utility.yul\":12309:12332   */\n      div\n        /* \"#utility.yul\":12299:12332   */\n      swap1\n      pop\n        /* \"#utility.yul\":12245:12338   */\n      swap2\n      swap1\n      pop\n      jump\t// out\n        /* \"#utility.yul\":12344:12451   */\n    tag_148:\n        /* \"#utility.yul\":12388:12396   */\n      0x00\n        /* \"#utility.yul\":12438:12443   */\n      dup3\n        /* \"#utility.yul\":12432:12436   */\n      dup3\n        /* \"#utility.yul\":12428:12444   */\n      shl\n        /* \"#utility.yul\":12407:12444   */\n      swap1\n      pop\n        /* \"#utility.yul\":12344:12451   */\n      swap3\n      swap2\n      pop\n      pop\n      jump\t// out\n        /* \"#utility.yul\":12457:12850   */\n    tag_149:\n        /* \"#utility.yul\":12526:12532   */\n      0x00\n        /* \"#utility.yul\":12576:12577   */\n      0x08\n        /* \"#utility.yul\":12564:12574   */\n      dup4\n        /* \"#utility.yul\":12560:12578   */\n      mul\n        /* \"#utility.yul\":12599:12696   */\n      tag_281\n        /* \"#utility.yul\":12629:12695   */\n      0xffffffffffffffffffffffffffffffffffffffffffffffffffffffffffffffff\n        /* \"#utility.yul\":12618:12627   */\n      dup3\n        /* \"#utility.yul\":12599:12696   */\n      tag_148\n      jump\t// in\n    tag_281:\n        /* \"#utility.yul\":12717:12756   */\n      tag_282\n        /* \"#utility.yul\":12747:12755   */\n      dup7\n        /* \"#utility.yul\":12736:12745   */\n      dup4\n        /* \"#utility.yul\":12717:12756   */\n      tag_148\n      jump\t// in\n    tag_282:\n        /* \"#utility.yul\":12705:12756   */\n      swap6\n      pop\n        /* \"#utility.yul\":12789:12793   */\n      dup1\n        /* \"#utility.yul\":12785:12794   */\n      not\n        /* \"#utility.yul\":12778:12783   */\n      dup5\n        /* \"#utility.yul\":12774:12795   */\n      and\n        /* \"#utility.yul\":12765:12795   */\n      swap4\n      pop\n        /* \"#utility.yul\":12838:12842   */\n      dup1\n        /* \"#utility.yul\":12828:12836   */\n      dup7\n        /* \"#utility.yul\":12824:12843   */\n      and\n        /* \"#utility.yul\":12817:12822   */\n      dup5\n        /* \"#utility.yul\":12814:12844   */\n      or\n        /* \"#utility.yul\":12804:12844   */\n      swap3\n      pop\n        /* \"#utility.yul\":12533:12850   */\n      pop\n      pop\n        /* \"#utility.yul\":12457:12850   */\n      swap4\n      swap3\n      pop\n      pop\n      pop\n      jump\t// out\n        /* \"#utility.yul\":12856:12916   */\n    tag_150:\n        /* \"#utility.yul\":12884:12887   */\n      0x00\n        /* \"#utility.yul\":12905:12910   */\n      dup2\n        /* \"#utility.yul\":12898:12910   */\n      swap1\n      pop\n        /* \"#utility.yul\":12856:12916   */\n      swap2\n      swap1\n      pop\n      jump\t// out\n        /* \"#utility.yul\":12922:13064   */\n    tag_151:\n        /* \"#utility.yul\":12972:12981   */\n      0x00\n        /* \"#utility.yul\":13005:13058   */\n      tag_285\n        /* \"#utility.yul\":13023:13057   */\n      tag_286\n        /* \"#utility.yul\":13032:13056   */\n      tag_287\n        /* \"#utility.yul\":13050:13055   */\n      dup5\n        /* \"#utility.yul\":13032:13056   */\n      tag_116\n      jump\t// in\n    tag_287:\n        /* \"#utility.yul\":13023:13057   */\n      tag_150\n      jump\t// in\n    tag_286:\n        /* \"#utility.yul\":13005:13058   */\n      tag_116\n      jump\t// in\n    tag_285:\n        /* \"#utility.yul\":12992:13058   */\n      swap1\n      pop\n        /* \"#utility.yul\":12922:13064   */\n      swap2\n      swap1\n      pop\n      jump\t// out\n        /* \"#utility.yul\":13070:13145   */\n    tag_152:\n        /* \"#utility.yul\":13113:13116   */\n      0x00\n        /* \"#utility.yul\":13134:13139   */\n      dup2\n        /* \"#utility.yul\":13127:13139   */\n      swap1\n      pop\n        /* \"#utility.yul\":13070:13145   */\n      swap2\n      swap1\n      pop\n      jump\t// out\n        /* \"#utility.yul\":13151:13420   */\n    tag_153:\n        /* \"#utility.yul\":13261:13300   */\n      tag_290\n        /* \"#utility.yul\":13292:13299   */\n      dup4\n        /* \"#utility.yul\":13261:13300   */\n      tag_151\n      jump\t// in\n    tag_290:\n        /* \"#utility.yul\":13322:13413   */\n      tag_291\n        /* \"#utility.yul\":13371:13412   */\n      tag_292\n        /* \"#utility.yul\":13395:13411   */\n      dup3\n        /* \"#utility.yul\":13371:13412   */\n      tag_152\n      jump\t// in\n    tag_292:\n        /* \"#utility.yul\":13363:13369   */\n      dup5\n        /* \"#utility.yul\":13356:13360   */\n      dup5\n        /* \"#utility.yul\":13350:13361   */\n      sload\n        /* \"#utility.yul\":13322:13413   */\n      tag_149\n      jump\t// in\n    tag_291:\n        /* \"#utility.yul\":13316:13320   */\n      dup3\n        /* \"#utility.yul\":13309:13414   */\n      sstore\n        /* \"#utility.yul\":13227:13420   */\n      pop\n        /* \"#utility.yul\":13151:13420   */\n      pop\n      pop\n      pop\n      jump\t// out\n        /* \"#utility.yul\":13426:13499   */\n    tag_154:\n        /* \"#utility.yul\":13471:13474   */\n      0x00\n        /* \"#utility.yul\":13426:13499   */\n      swap1\n      jump\t// out\n        /* \"#utility.yul\":13505:13694   */\n    tag_155:\n        /* \"#utility.yul\":13582:13614   */\n      tag_295\n      tag_154\n      jump\t// in\n    tag_295:\n        /* \"#utility.yul\":13623:13688   */\n      tag_296\n        /* \"#utility.yul\":13681:13687   */\n      dup2\n        /* \"#utility.yul\":13673:13679   */\n      dup5\n        /* \"#utility.yul\":13667:13671   */\n      dup5\n        /* \"#utility.yul\":13623:13688   */\n      tag_153\n      jump\t// in\n    tag_296:\n        /* \"#utility.yul\":13558:13694   */\n      pop\n        /* \"#utility.yul\":13505:13694   */\n      pop\n      pop\n      jump\t// out\n        /* \"#utility.yul\":13700:13886   */\n    tag_156:\n        /* \"#utility.yul\":13760:13880   */\n    tag_298:\n        /* \"#utility.yul\":13777:13780   */\n      dup2\n        /* \"#utility.yul\":13770:13775   */\n      dup2\n        /* \"#utility.yul\":13767:13781   */\n      lt\n        /* \"#utility.yul\":13760:13880   */\n      iszero\n      tag_300\n      jumpi\n        /* \"#utility.yul\":13831:13870   */\n      tag_301\n        /* \"#utility.yul\":13868:13869   */\n      0x00\n        /* \"#utility.yul\":13861:13866   */\n      dup3\n        /* \"#utility.yul\":13831:13870   */\n      tag_155\n      jump\t// in\n    tag_301:\n        /* \"#utility.yul\":13804:13805   */\n      0x01\n        /* \"#utility.yul\":13797:13802   */\n      dup2\n        /* \"#utility.yul\":13793:13806   */\n      add\n        /* \"#utility.yul\":13784:13806   */\n      swap1\n      pop\n        /* \"#utility.yul\":13760:13880   */\n      jump(tag_298)\n    tag_300:\n        /* \"#utility.yul\":13700:13886   */\n      pop\n      pop\n      jump\t// out\n        /* \"#utility.yul\":13892:14435   */\n    tag_157:\n        /* \"#utility.yul\":13993:13995   */\n      0x1f\n        /* \"#utility.yul\":13988:13991   */\n      dup3\n        /* \"#utility.yul\":13985:13996   */\n      gt\n        /* \"#utility.yul\":13982:14428   */\n      iszero\n      tag_303\n      jumpi\n        /* \"#utility.yul\":14027:14065   */\n      tag_304\n        /* \"#utility.yul\":14059:14064   */\n      dup2\n        /* \"#utility.yul\":14027:14065   */\n      tag_146\n      jump\t// in\n    tag_304:\n        /* \"#utility.yul\":14111:14140   */\n      tag_305\n        /* \"#utility.yul\":14129:14139   */\n      dup5\n        /* \"#utility.yul\":14111:14140   */\n      tag_147\n      jump\t// in\n    tag_305:\n        /* \"#utility.yul\":14101:14109   */\n      dup2\n        /* \"#utility.yul\":14097:14141   */\n      add\n        /* \"#utility.yul\":14294:14296   */\n      0x20\n        /* \"#utility.yul\":14282:14292   */\n      dup6\n        /* \"#utility.yul\":14279:14297   */\n      lt\n        /* \"#utility.yul\":14276:14325   */\n      iszero\n      tag_306\n      jumpi\n        /* \"#utility.yul\":14315:14323   */\n      dup2\n        /* \"#utility.yul\":14300:14323   */\n      swap1\n      pop\n        /* \"#utility.yul\":14276:14325   */\n    tag_306:\n        /* \"#utility.yul\":14338:14418   */\n      tag_307\n        /* \"#utility.yul\":14394:14416   */\n      tag_308\n        /* \"#utility.yul\":14412:14415   */\n      dup6\n        /* \"#utility.yul\":14394:14416   */\n      tag_147\n      jump\t// in\n    tag_308:\n        /* \"#utility.yul\":14384:14392   */\n      dup4\n        /* \"#utility.yul\":14380:14417   */\n      add\n        /* \"#utility.yul\":14367:14378   */\n      dup3\n        /* \"#utility.yul\":14338:14418   */\n      tag_156\n      jump\t// in\n    tag_307:\n        /* \"#utility.yul\":13997:14428   */\n      pop\n      pop\n        /* \"#utility.yul\":13982:14428   */\n    tag_303:\n        /* \"#utility.yul\":13892:14435   */\n      pop\n      pop\n      pop\n      jump\t// out\n        /* \"#utility.yul\":14441:14558   */\n    tag_158:\n        /* \"#utility.yul\":14495:14503   */\n      0x00\n        /* \"#utility.yul\":14545:14550   */\n      dup3\n        /* \"#utility.yul\":14539:14543   */\n      dup3\n        /* \"#utility.yul\":14535:14551   */\n      shr\n        /* \"#utility.yul\":14514:14551   */\n      swap1\n      pop\n        /* \"#utility.yul\":14441:14558   */\n      swap3\n      swap2\n      pop\n      pop\n      jump\t// out\n        /* \"#utility.yul\":14564:14733   */\n    tag_159:\n        /* \"#utility.yul\":14608:14614   */\n      0x00\n        /* \"#utility.yul\":14641:14692   */\n      tag_311\n        /* \"#utility.yul\":14689:14690   */\n      0x00\n        /* \"#utility.yul\":14685:14691   */\n      not\n        /* \"#utility.yul\":14677:14682   */\n      dup5\n        /* \"#utility.yul\":14674:14675   */\n      0x08\n        /* \"#utility.yul\":14670:14683   */\n      mul\n        /* \"#utility.yul\":14641:14692   */\n      tag_158\n      jump\t// in\n    tag_311:\n        /* \"#utility.yul\":14637:14693   */\n      not\n        /* \"#utility.yul\":14722:14726   */\n      dup1\n        /* \"#utility.yul\":14716:14720   */\n      dup4\n        /* \"#utility.yul\":14712:14727   */\n      and\n        /* \"#utility.yul\":14702:14727   */\n      swap2\n      pop\n        /* \"#utility.yul\":14615:14733   */\n      pop\n        /* \"#utility.yul\":14564:14733   */\n      swap3\n      swap2\n      pop\n      pop\n      jump\t// out\n        /* \"#utility.yul\":14738:15033   */\n    tag_160:\n        /* \"#utility.yul\":14814:14818   */\n      0x00\n        /* \"#utility.yul\":14960:14989   */\n      tag_313\n        /* \"#utility.yul\":14985:14988   */\n      dup4\n        /* \"#utility.yul\":14979:14983   */\n      dup4\n        /* \"#utility.yul\":14960:14989   */\n      tag_159\n      jump\t// in\n    tag_313:\n        /* \"#utility.yul\":14952:14989   */\n      swap2\n      pop\n        /* \"#utility.yul\":15022:15025   */\n      dup3\n        /* \"#utility.yul\":15019:15020   */\n      0x02\n        /* \"#utility.yul\":15015:15026   */\n      mul\n        /* \"#utility.yul\":15009:15013   */\n      dup3\n        /* \"#utility.yul\":15006:15027   */\n      or\n        /* \"#utility.yul\":14998:15027   */\n      swap1\n      pop\n        /* \"#utility.yul\":14738:15033   */\n      swap3\n      swap2\n      pop\n      pop\n      jump\t// out\n        /* \"#utility.yul\":15038:16433   */\n    tag_100:\n        /* \"#utility.yul\":15155:15192   */\n      tag_315\n        /* \"#utility.yul\":15188:15191   */\n      dup3\n        /* \"#utility.yul\":15155:15192   */\n      tag_122\n      jump\t// in\n    tag_315:\n        /* \"#utility.yul\":15257:15275   */\n      0xffffffffffffffff\n        /* \"#utility.yul\":15249:15255   */\n      dup2\n        /* \"#utility.yul\":15246:15276   */\n      gt\n        /* \"#utility.yul\":15243:15299   */\n      iszero\n      tag_316\n      jumpi\n        /* \"#utility.yul\":15279:15297   */\n      tag_317\n      tag_145\n      jump\t// in\n    tag_317:\n        /* \"#utility.yul\":15243:15299   */\n    tag_316:\n        /* \"#utility.yul\":15323:15361   */\n      tag_318\n        /* \"#utility.yul\":15355:15359   */\n      dup3\n        /* \"#utility.yul\":15349:15360   */\n      sload\n        /* \"#utility.yul\":15323:15361   */\n      tag_37\n      jump\t// in\n    tag_318:\n        /* \"#utility.yul\":15408:15475   */\n      tag_319\n        /* \"#utility.yul\":15468:15474   */\n      dup3\n        /* \"#utility.yul\":15460:15466   */\n      dup3\n        /* \"#utility.yul\":15454:15458   */\n      dup6\n        /* \"#utility.yul\":15408:15475   */\n      tag_157\n      jump\t// in\n    tag_319:\n        /* \"#utility.yul\":15502:15503   */\n      0x00\n        /* \"#utility.yul\":15526:15530   */\n      0x20\n        /* \"#utility.yul\":15513:15530   */\n      swap1\n      pop\n        /* \"#utility.yul\":15558:15560   */\n      0x1f\n        /* \"#utility.yul\":15550:15556   */\n      dup4\n        /* \"#utility.yul\":15547:15561   */\n      gt\n        /* \"#utility.yul\":15575:15576   */\n      0x01\n        /* \"#utility.yul\":15570:16188   */\n      dup2\n      eq\n      tag_321\n      jumpi\n        /* \"#utility.yul\":16232:16233   */\n      0x00\n        /* \"#utility.yul\":16249:16255   */\n      dup5\n        /* \"#utility.yul\":16246:16323   */\n      iszero\n      tag_322\n      jumpi\n        /* \"#utility.yul\":16298:16307   */\n      dup3\n        /* \"#utility.yul\":16293:16296   */\n      dup8\n        /* \"#utility.yul\":16289:16308   */\n      add\n        /* \"#utility.yul\":16283:16309   */\n      mload\n        /* \"#utility.yul\":16274:16309   */\n      swap1\n      pop\n        /* \"#utility.yul\":16246:16323   */\n    tag_322:\n        /* \"#utility.yul\":16349:16416   */\n      tag_323\n        /* \"#utility.yul\":16409:16415   */\n      dup6\n        /* \"#utility.yul\":16402:16407   */\n      dup3\n        /* \"#utility.yul\":16349:16416   */\n      tag_160\n      jump\t// in\n    tag_323:\n        /* \"#utility.yul\":16343:16347   */\n      dup7\n        /* \"#utility.yul\":16336:16417   */\n      sstore\n        /* \"#utility.yul\":16205:16427   */\n      pop\n        /* \"#utility.yul\":15540:16427   */\n      jump(tag_320)\n        /* \"#utility.yul\":15570:16188   */\n    tag_321:\n        /* \"#utility.yul\":15622:15626   */\n      0x1f\n        /* \"#utility.yul\":15618:15627   */\n      not\n        /* \"#utility.yul\":15610:15616   */\n      dup5\n        /* \"#utility.yul\":15606:15628   */\n      and\n        /* \"#utility.yul\":15656:15693   */\n      tag_324\n        /* \"#utility.yul\":15688:15692   */\n      dup7\n        /* \"#utility.yul\":15656:15693   */\n      tag_146\n      jump\t// in\n    tag_324:\n        /* \"#utility.yul\":15715:15716   */\n      0x00\n        /* \"#utility.yul\":15729:15937   */\n    tag_325:\n        /* \"#utility.yul\":15743:15750   */\n      dup3\n        /* \"#utility.yul\":15740:15741   */\n      dup2\n        /* \"#utility.yul\":15737:15751   */\n      lt\n        /* \"#utility.yul\":15729:15937   */\n      iszero\n      tag_327\n      jumpi\n        /* \"#utility.yul\":15822:15831   */\n      dup5\n        /* \"#utility.yul\":15817:15820   */\n      dup10\n        /* \"#utility.yul\":15813:15832   */\n      add\n        /* \"#utility.yul\":15807:15833   */\n      mload\n        /* \"#utility.yul\":15799:15805   */\n      dup3\n        /* \"#utility.yul\":15792:15834   */\n      sstore\n        /* \"#utility.yul\":15873:15874   */\n      0x01\n        /* \"#utility.yul\":15865:15871   */\n      dup3\n        /* \"#utility.yul\":15861:15875   */\n      add\n        /* \"#utility.yul\":15851:15875   */\n      swap2\n      pop\n        /* \"#utility.yul\":15920:15922   */\n      0x20\n        /* \"#utility.yul\":15909:15918   */\n      dup6\n        /* \"#utility.yul\":15905:15923   */\n      add\n        /* \"#utility.yul\":15892:15923   */\n      swap5\n      pop\n        /* \"#utility.yul\":15766:15770   */\n      0x20\n        /* \"#utility.yul\":15763:15764   */\n      dup2\n        /* \"#utility.yul\":15759:15771   */\n      add\n        /* \"#utility.yul\":15754:15771   */\n      swap1\n      pop\n        /* \"#utility.yul\":15729:15937   */\n      jump(tag_325)\n    tag_327:\n        /* \"#utility.yul\":15965:15971   */\n      dup7\n        /* \"#utility.yul\":15956:15963   */\n      dup4\n        /* \"#utility.yul\":15953:15972   */\n      lt\n        /* \"#utility.yul\":15950:16129   */\n      iszero\n      tag_328\n      jumpi\n        /* \"#utility.yul\":16023:16032   */\n      dup5\n        /* \"#utility.yul\":16018:16021   */\n      dup10\n        /* \"#utility.yul\":16014:16033   */\n      add\n        /* \"#utility.yul\":16008:16034   */\n      mload\n        /* \"#utility.yul\":16066:16114   */\n      tag_329\n        /* \"#utility.yul\":16108:16112   */\n      0x1f\n        /* \"#utility.yul\":16100:16106   */\n      dup10\n        /* \"#utility.yul\":16096:16113   */\n      and\n        /* \"#utility.yul\":16085:16094   */\n      dup3\n        /* \"#utility.yul\":16066:16114   */\n      tag_159\n      jump\t// in\n    tag_329:\n        /* \"#utility.yul\":16058:16064   */\n      dup4\n        /* \"#utility.yul\":16051:16115   */\n      sstore\n        /* \"#utility.yul\":15973:16129   */\n      pop\n        /* \"#utility.yul\":15950:16129   */\n    tag_328:\n        /* \"#utility.yul\":16175:16176   */\n      0x01\n        /* \"#utility.yul\":16171:16172   */\n      0x02\n        /* \"#utility.yul\":16163:16169   */\n      dup9\n        /* \"#utility.yul\":16159:16173   */\n      mul\n        /* \"#utility.yul\":16155:16177   */\n      add\n        /* \"#utility.yul\":16149:16153   */\n      dup9\n        /* \"#utility.yul\":16142:16178   */\n      sstore\n        /* \"#utility.yul\":15577:16188   */\n      pop\n      pop\n      pop\n        /* \"#utility.yul\":15540:16427   */\n    tag_320:\n      pop\n        /* \"#utility.yul\":15130:16433   */\n      pop\n      pop\n      pop\n        /* \"#utility.yul\":15038:16433   */\n      pop\n      pop\n      jump\t// out\n        /* \"#utility.yul\":16439:16660   */\n    tag_161:\n        /* \"#utility.yul\":16579:16613   */\n      0x596f75206d7573742073656e64206120646f6e6174696f6e2076616c7565203e\n        /* \"#utility.yul\":16575:16576   */\n      0x00\n        /* \"#utility.yul\":16567:16573   */\n      dup3\n        /* \"#utility.yul\":16563:16577   */\n      add\n        /* \"#utility.yul\":16556:16614   */\n      mstore\n        /* \"#utility.yul\":16648:16652   */\n      0x2030000000000000000000000000000000000000000000000000000000000000\n        /* \"#utility.yul\":16643:16645   */\n      0x20\n        /* \"#utility.yul\":16635:16641   */\n      dup3\n        /* \"#utility.yul\":16631:16646   */\n      add\n        /* \"#utility.yul\":16624:16653   */\n      mstore\n        /* \"#utility.yul\":16439:16660   */\n      pop\n      jump\t// out\n        /* \"#utility.yul\":16666:17032   */\n    tag_162:\n        /* \"#utility.yul\":16808:16811   */\n      0x00\n        /* \"#utility.yul\":16829:16896   */\n      tag_332\n        /* \"#utility.yul\":16893:16895   */\n      0x22\n        /* \"#utility.yul\":16888:16891   */\n      dup4\n        /* \"#utility.yul\":16829:16896   */\n      tag_123\n      jump\t// in\n    tag_332:\n        /* \"#utility.yul\":16822:16896   */\n      swap2\n      pop\n        /* \"#utility.yul\":16905:16998   */\n      tag_333\n        /* \"#utility.yul\":16994:16997   */\n      dup3\n        /* \"#utility.yul\":16905:16998   */\n      tag_161\n      jump\t// in\n    tag_333:\n        /* \"#utility.yul\":17023:17025   */\n      0x40\n        /* \"#utility.yul\":17018:17021   */\n      dup3\n        /* \"#utility.yul\":17014:17026   */\n      add\n        /* \"#utility.yul\":17007:17026   */\n      swap1\n      pop\n        /* \"#utility.yul\":16666:17032   */\n      swap2\n      swap1\n      pop\n      jump\t// out\n        /* \"#utility.yul\":17038:17457   */\n    tag_107:\n        /* \"#utility.yul\":17204:17208   */\n      0x00\n        /* \"#utility.yul\":17242:17244   */\n      0x20\n        /* \"#utility.yul\":17231:17240   */\n      dup3\n        /* \"#utility.yul\":17227:17245   */\n      add\n        /* \"#utility.yul\":17219:17245   */\n      swap1\n      pop\n        /* \"#utility.yul\":17291:17300   */\n      dup2\n        /* \"#utility.yul\":17285:17289   */\n      dup2\n        /* \"#utility.yul\":17281:17301   */\n      sub\n        /* \"#utility.yul\":17277:17278   */\n      0x00\n        /* \"#utility.yul\":17266:17275   */\n      dup4\n        /* \"#utility.yul\":17262:17279   */\n      add\n        /* \"#utility.yul\":17255:17302   */\n      mstore\n        /* \"#utility.yul\":17319:17450   */\n      tag_335\n        /* \"#utility.yul\":17445:17449   */\n      dup2\n        /* \"#utility.yul\":17319:17450   */\n      tag_162\n      jump\t// in\n    tag_335:\n        /* \"#utility.yul\":17311:17450   */\n      swap1\n      pop\n        /* \"#utility.yul\":17038:17457   */\n      swap2\n      swap1\n      pop\n      jump\t// out\n        /* \"#utility.yul\":17463:17643   */\n    tag_163:\n        /* \"#utility.yul\":17603:17635   */\n      0x43616e6e6f7420646f6e61746520746f20746869732063616d706169676e0000\n        /* \"#utility.yul\":17599:17600   */\n      0x00\n        /* \"#utility.yul\":17591:17597   */\n      dup3\n        /* \"#utility.yul\":17587:17601   */\n      add\n        /* \"#utility.yul\":17580:17636   */\n      mstore\n        /* \"#utility.yul\":17463:17643   */\n      pop\n      jump\t// out\n        /* \"#utility.yul\":17649:18015   */\n    tag_164:\n        /* \"#utility.yul\":17791:17794   */\n      0x00\n        /* \"#utility.yul\":17812:17879   */\n      tag_338\n        /* \"#utility.yul\":17876:17878   */\n      0x1e\n        /* \"#utility.yul\":17871:17874   */\n      dup4\n        /* \"#utility.yul\":17812:17879   */\n      tag_123\n      jump\t// in\n    tag_338:\n        /* \"#utility.yul\":17805:17879   */\n      swap2\n      pop\n        /* \"#utility.yul\":17888:17981   */\n      tag_339\n        /* \"#utility.yul\":17977:17980   */\n      dup3\n        /* \"#utility.yul\":17888:17981   */\n      tag_163\n      jump\t// in\n    tag_339:\n        /* \"#utility.yul\":18006:18008   */\n      0x20\n        /* \"#utility.yul\":18001:18004   */\n      dup3\n        /* \"#utility.yul\":17997:18009   */\n      add\n        /* \"#utility.yul\":17990:18009   */\n      swap1\n      pop\n        /* \"#utility.yul\":17649:18015   */\n      swap2\n      swap1\n      pop\n      jump\t// out\n        /* \"#utility.yul\":18021:18440   */\n    tag_110:\n        /* \"#utility.yul\":18187:18191   */\n      0x00\n        /* \"#utility.yul\":18225:18227   */\n      0x20\n        /* \"#utility.yul\":18214:18223   */\n      dup3\n        /* \"#utility.yul\":18210:18228   */\n      add\n        /* \"#utility.yul\":18202:18228   */\n      swap1\n      pop\n        /* \"#utility.yul\":18274:18283   */\n      dup2\n        /* \"#utility.yul\":18268:18272   */\n      dup2\n        /* \"#utility.yul\":18264:18284   */\n      sub\n        /* \"#utility.yul\":18260:18261   */\n      0x00\n        /* \"#utility.yul\":18249:18258   */\n      dup4\n        /* \"#utility.yul\":18245:18262   */\n      add\n        /* \"#utility.yul\":18238:18285   */\n      mstore\n        /* \"#utility.yul\":18302:18433   */\n      tag_341\n        /* \"#utility.yul\":18428:18432   */\n      dup2\n        /* \"#utility.yul\":18302:18433   */\n      tag_164\n      jump\t// in\n    tag_341:\n        /* \"#utility.yul\":18294:18433   */\n      swap1\n      pop\n        /* \"#utility.yul\":18021:18440   */\n      swap2\n      swap1\n      pop\n      jump\t// out\n        /* \"#utility.yul\":18446:18637   */\n    tag_112:\n        /* \"#utility.yul\":18486:18489   */\n      0x00\n        /* \"#utility.yul\":18505:18525   */\n      tag_343\n        /* \"#utility.yul\":18523:18524   */\n      dup3\n        /* \"#utility.yul\":18505:18525   */\n      tag_116\n      jump\t// in\n    tag_343:\n        /* \"#utility.yul\":18500:18525   */\n      swap2\n      pop\n        /* \"#utility.yul\":18539:18559   */\n      tag_344\n        /* \"#utility.yul\":18557:18558   */\n      dup4\n        /* \"#utility.yul\":18539:18559   */\n      tag_116\n      jump\t// in\n    tag_344:\n        /* \"#utility.yul\":18534:18559   */\n      swap3\n      pop\n        /* \"#utility.yul\":18582:18583   */\n      dup3\n        /* \"#utility.yul\":18579:18580   */\n      dup3\n        /* \"#utility.yul\":18575:18584   */\n      add\n        /* \"#utility.yul\":18568:18584   */\n      swap1\n      pop\n        /* \"#utility.yul\":18603:18606   */\n      dup1\n        /* \"#utility.yul\":18600:18601   */\n      dup3\n        /* \"#utility.yul\":18597:18607   */\n      gt\n        /* \"#utility.yul\":18594:18630   */\n      iszero\n      tag_345\n      jumpi\n        /* \"#utility.yul\":18610:18628   */\n      tag_346\n      tag_141\n      jump\t// in\n    tag_346:\n        /* \"#utility.yul\":18594:18630   */\n    tag_345:\n        /* \"#utility.yul\":18446:18637   */\n      swap3\n      swap2\n      pop\n      pop\n      jump\t// out\n\n    auxdata: 0xa2646970667358221220d0241db36304f6ef918a5e09d800be9157e0116e611c385eca6179b4a7dedf3564736f6c63430008120033\n}\n",
				"bytecode": {
					"linkReferences": {},
					"object": "60806040526064600055600060015534801561001a57600080fd5b506116a48061002a6000396000f3fe6080604052600436106100555760003560e01c8063141961bc1461005a5780632e1a7d4d1461009d57806361b8ce8c146100c6578063ddca3f43146100f1578063ec6714861461011c578063f14faf6f14610145575b600080fd5b34801561006657600080fd5b50610081600480360381019061007c9190610cb8565b610161565b6040516100949796959493929190610de0565b60405180910390f35b3480156100a957600080fd5b506100c460048036038101906100bf9190610cb8565b6103f0565b005b3480156100d257600080fd5b506100db6108b0565b6040516100e89190610e6b565b60405180910390f35b3480156100fd57600080fd5b506101066108b6565b6040516101139190610e6b565b60405180910390f35b34801561012857600080fd5b50610143600480360381019061013e9190610eeb565b6108bc565b005b61015f600480360381019061015a9190610cb8565b610b46565b005b60026020528060005260406000206000915090508060000160009054906101000a900473ffffffffffffffffffffffffffffffffffffffff16908060010180546101aa90611003565b80601f01602080910402602001604051908101604052809291908181526020018280546101d690611003565b80156102235780601f106101f857610100808354040283529160200191610223565b820191906000526020600020905b81548152906001019060200180831161020657829003601f168201915b50505050509080600201805461023890611003565b80601f016020809104026020016040519081016040528092919081815260200182805461026490611003565b80156102b15780601f10610286576101008083540402835291602001916102b1565b820191906000526020600020905b81548152906001019060200180831161029457829003601f168201915b5050505050908060030180546102c690611003565b80601f01602080910402602001604051908101604052809291908181526020018280546102f290611003565b801561033f5780601f106103145761010080835404028352916020019161033f565b820191906000526020600020905b81548152906001019060200180831161032257829003601f168201915b50505050509080600401805461035490611003565b80601f016020809104026020016040519081016040528092919081815260200182805461038090611003565b80156103cd5780601f106103a2576101008083540402835291602001916103cd565b820191906000526020600020905b8154815290600101906020018083116103b057829003601f168201915b5050505050908060050154908060060160009054906101000a900460ff16905087565b6000600260008381526020019081526020016000206040518060e00160405290816000820160009054906101000a900473ffffffffffffffffffffffffffffffffffffffff1673ffffffffffffffffffffffffffffffffffffffff1673ffffffffffffffffffffffffffffffffffffffff16815260200160018201805461047690611003565b80601f01602080910402602001604051908101604052809291908181526020018280546104a290611003565b80156104ef5780601f106104c4576101008083540402835291602001916104ef565b820191906000526020600020905b8154815290600101906020018083116104d257829003601f168201915b5050505050815260200160028201805461050890611003565b80601f016020809104026020016040519081016040528092919081815260200182805461053490611003565b80156105815780601f1061055657610100808354040283529160200191610581565b820191906000526020600020905b81548152906001019060200180831161056457829003601f168201915b5050505050815260200160038201805461059a90611003565b80601f01602080910402602001604051908101604052809291908181526020018280546105c690611003565b80156106135780601f106105e857610100808354040283529160200191610613565b820191906000526020600020905b8154815290600101906020018083116105f657829003601f168201915b5050505050815260200160048201805461062c90611003565b80601f016020809104026020016040519081016040528092919081815260200182805461065890611003565b80156106a55780601f1061067a576101008083540402835291602001916106a5565b820191906000526020600020905b81548152906001019060200180831161068857829003601f168201915b50505050508152602001600582015481526020016006820160009054906101000a900460ff16151515158152505090503373ffffffffffffffffffffffffffffffffffffffff16816000015173ffffffffffffffffffffffffffffffffffffffff1614610747576040517f08c379a000000000000000000000000000000000000000000000000000000000815260040161073e90611080565b60405180910390fd5b600115156002600084815260200190815260200160002060060160009054906101000a900460ff161515146107b1576040517f08c379a00000000000000000000000000000000000000000000000000000000081526004016107a8906110ec565b60405180910390fd5b6000548160a00151116107f9576040517f08c379a00000000000000000000000000000000000000000000000000000000081526004016107f09061117e565b60405180910390fd5b6000816000015190508073ffffffffffffffffffffffffffffffffffffffff166000548360a0015161082b91906111cd565b60405161083790611232565b60006040518083038185875af1925050503d8060008114610874576040519150601f19603f3d011682016040523d82523d6000602084013e610879565b606091505b50505060006002600085815260200190815260200160002060060160006101000a81548160ff021916908315150217905550505050565b60015481565b60005481565b6108c4610c23565b88888080601f016020809104026020016040519081016040528093929190818152602001838380828437600081840152601f19601f82011690508083019250505050505050816020018190525086868080601f016020809104026020016040519081016040528093929190818152602001838380828437600081840152601f19601f82011690508083019250505050505050816040018190525084848080601f016020809104026020016040519081016040528093929190818152602001838380828437600081840152601f19601f82011690508083019250505050505050816060018190525082828080601f016020809104026020016040519081016040528093929190818152602001838380828437600081840152601f19601f82011690508083019250505050505050816080018190525060018160c001901515908115158152505033816000019073ffffffffffffffffffffffffffffffffffffffff16908173ffffffffffffffffffffffffffffffffffffffff168152505060016000815480929190610a5490611247565b91905055508060026000600154815260200190815260200160002060008201518160000160006101000a81548173ffffffffffffffffffffffffffffffffffffffff021916908373ffffffffffffffffffffffffffffffffffffffff1602179055506020820151816001019081610acb919061146a565b506040820151816002019081610ae1919061146a565b506060820151816003019081610af7919061146a565b506080820151816004019081610b0d919061146a565b5060a0820151816005015560c08201518160060160006101000a81548160ff021916908315150217905550905050505050505050505050565b60003411610b89576040517f08c379a0000000000000000000000000000000000000000000000000000000008152600401610b80906115ae565b60405180910390fd5b600115156002600083815260200190815260200160002060060160009054906101000a900460ff16151514610bf3576040517f08c379a0000000000000000000000000000000000000000000000000000000008152600401610bea9061161a565b60405180910390fd5b34600260008381526020019081526020016000206005016000828254610c19919061163a565b9250508190555050565b6040518060e00160405280600073ffffffffffffffffffffffffffffffffffffffff16815260200160608152602001606081526020016060815260200160608152602001600081526020016000151581525090565b600080fd5b600080fd5b6000819050919050565b610c9581610c82565b8114610ca057600080fd5b50565b600081359050610cb281610c8c565b92915050565b600060208284031215610cce57610ccd610c78565b5b6000610cdc84828501610ca3565b91505092915050565b600073ffffffffffffffffffffffffffffffffffffffff82169050919050565b6000610d1082610ce5565b9050919050565b610d2081610d05565b82525050565b600081519050919050565b600082825260208201905092915050565b60005b83811015610d60578082015181840152602081019050610d45565b60008484015250505050565b6000601f19601f8301169050919050565b6000610d8882610d26565b610d928185610d31565b9350610da2818560208601610d42565b610dab81610d6c565b840191505092915050565b610dbf81610c82565b82525050565b60008115159050919050565b610dda81610dc5565b82525050565b600060e082019050610df5600083018a610d17565b8181036020830152610e078189610d7d565b90508181036040830152610e1b8188610d7d565b90508181036060830152610e2f8187610d7d565b90508181036080830152610e438186610d7d565b9050610e5260a0830185610db6565b610e5f60c0830184610dd1565b98975050505050505050565b6000602082019050610e806000830184610db6565b92915050565b600080fd5b600080fd5b600080fd5b60008083601f840112610eab57610eaa610e86565b5b8235905067ffffffffffffffff811115610ec857610ec7610e8b565b5b602083019150836001820283011115610ee457610ee3610e90565b5b9250929050565b6000806000806000806000806080898b031215610f0b57610f0a610c78565b5b600089013567ffffffffffffffff811115610f2957610f28610c7d565b5b610f358b828c01610e95565b9850985050602089013567ffffffffffffffff811115610f5857610f57610c7d565b5b610f648b828c01610e95565b9650965050604089013567ffffffffffffffff811115610f8757610f86610c7d565b5b610f938b828c01610e95565b9450945050606089013567ffffffffffffffff811115610fb657610fb5610c7d565b5b610fc28b828c01610e95565b92509250509295985092959890939650565b7f4e487b7100000000000000000000000000000000000000000000000000000000600052602260045260246000fd5b6000600282049050600182168061101b57607f821691505b60208210810361102e5761102d610fd4565b5b50919050565b7f596f7520646f206e6f742068617665207065726d697373696f6e000000000000600082015250565b600061106a601a83610d31565b915061107582611034565b602082019050919050565b600060208201905081810360008301526110998161105d565b9050919050565b7f546869732063616d706169676e20697320636c6f736564000000000000000000600082015250565b60006110d6601783610d31565b91506110e1826110a0565b602082019050919050565b60006020820190508181036000830152611105816110c9565b9050919050565b7f546869732063616d706169676e20646f6573206e6f74206861766520656e6f7560008201527f67682062616c616e636500000000000000000000000000000000000000000000602082015250565b6000611168602a83610d31565b91506111738261110c565b604082019050919050565b600060208201905081810360008301526111978161115b565b9050919050565b7f4e487b7100000000000000000000000000000000000000000000000000000000600052601160045260246000fd5b60006111d882610c82565b91506111e383610c82565b92508282039050818111156111fb576111fa61119e565b5b92915050565b600081905092915050565b50565b600061121c600083611201565b91506112278261120c565b600082019050919050565b600061123d8261120f565b9150819050919050565b600061125282610c82565b91507fffffffffffffffffffffffffffffffffffffffffffffffffffffffffffffffff82036112845761128361119e565b5b600182019050919050565b7f4e487b7100000000000000000000000000000000000000000000000000000000600052604160045260246000fd5b60008190508160005260206000209050919050565b60006020601f8301049050919050565b600082821b905092915050565b6000600883026113207fffffffffffffffffffffffffffffffffffffffffffffffffffffffffffffffff826112e3565b61132a86836112e3565b95508019841693508086168417925050509392505050565b6000819050919050565b600061136761136261135d84610c82565b611342565b610c82565b9050919050565b6000819050919050565b6113818361134c565b61139561138d8261136e565b8484546112f0565b825550505050565b600090565b6113aa61139d565b6113b5818484611378565b505050565b5b818110156113d9576113ce6000826113a2565b6001810190506113bb565b5050565b601f82111561141e576113ef816112be565b6113f8846112d3565b81016020851015611407578190505b61141b611413856112d3565b8301826113ba565b50505b505050565b600082821c905092915050565b600061144160001984600802611423565b1980831691505092915050565b600061145a8383611430565b9150826002028217905092915050565b61147382610d26565b67ffffffffffffffff81111561148c5761148b61128f565b5b6114968254611003565b6114a18282856113dd565b600060209050601f8311600181146114d457600084156114c2578287015190505b6114cc858261144e565b865550611534565b601f1984166114e2866112be565b60005b8281101561150a578489015182556001820191506020850194506020810190506114e5565b868310156115275784890151611523601f891682611430565b8355505b6001600288020188555050505b505050505050565b7f596f75206d7573742073656e64206120646f6e6174696f6e2076616c7565203e60008201527f2030000000000000000000000000000000000000000000000000000000000000602082015250565b6000611598602283610d31565b91506115a38261153c565b604082019050919050565b600060208201905081810360008301526115c78161158b565b9050919050565b7f43616e6e6f7420646f6e61746520746f20746869732063616d706169676e0000600082015250565b6000611604601e83610d31565b915061160f826115ce565b602082019050919050565b60006020820190508181036000830152611633816115f7565b9050919050565b600061164582610c82565b915061165083610c82565b92508282019050808211156116685761166761119e565b5b9291505056fea2646970667358221220d0241db36304f6ef918a5e09d800be9157e0116e611c385eca6179b4a7dedf3564736f6c63430008120033",
					"opcodes": "PUSH1 0x80 PUSH1 0x40 MSTORE PUSH1 0x64 PUSH1 0x0 SSTORE PUSH1 0x0 PUSH1 0x1 SSTORE CALLVALUE DUP1 ISZERO PUSH2 0x1A JUMPI PUSH1 0x0 DUP1 REVERT JUMPDEST POP PUSH2 0x16A4 DUP1 PUSH2 0x2A PUSH1 0x0 CODECOPY PUSH1 0x0 RETURN INVALID PUSH1 0x80 PUSH1 0x40 MSTORE PUSH1 0x4 CALLDATASIZE LT PUSH2 0x55 JUMPI PUSH1 0x0 CALLDATALOAD PUSH1 0xE0 SHR DUP1 PUSH4 0x141961BC EQ PUSH2 0x5A JUMPI DUP1 PUSH4 0x2E1A7D4D EQ PUSH2 0x9D JUMPI DUP1 PUSH4 0x61B8CE8C EQ PUSH2 0xC6 JUMPI DUP1 PUSH4 0xDDCA3F43 EQ PUSH2 0xF1 JUMPI DUP1 PUSH4 0xEC671486 EQ PUSH2 0x11C JUMPI DUP1 PUSH4 0xF14FAF6F EQ PUSH2 0x145 JUMPI JUMPDEST PUSH1 0x0 DUP1 REVERT JUMPDEST CALLVALUE DUP1 ISZERO PUSH2 0x66 JUMPI PUSH1 0x0 DUP1 REVERT JUMPDEST POP PUSH2 0x81 PUSH1 0x4 DUP1 CALLDATASIZE SUB DUP2 ADD SWAP1 PUSH2 0x7C SWAP2 SWAP1 PUSH2 0xCB8 JUMP JUMPDEST PUSH2 0x161 JUMP JUMPDEST PUSH1 0x40 MLOAD PUSH2 0x94 SWAP8 SWAP7 SWAP6 SWAP5 SWAP4 SWAP3 SWAP2 SWAP1 PUSH2 0xDE0 JUMP JUMPDEST PUSH1 0x40 MLOAD DUP1 SWAP2 SUB SWAP1 RETURN JUMPDEST CALLVALUE DUP1 ISZERO PUSH2 0xA9 JUMPI PUSH1 0x0 DUP1 REVERT JUMPDEST POP PUSH2 0xC4 PUSH1 0x4 DUP1 CALLDATASIZE SUB DUP2 ADD SWAP1 PUSH2 0xBF SWAP2 SWAP1 PUSH2 0xCB8 JUMP JUMPDEST PUSH2 0x3F0 JUMP JUMPDEST STOP JUMPDEST CALLVALUE DUP1 ISZERO PUSH2 0xD2 JUMPI PUSH1 0x0 DUP1 REVERT JUMPDEST POP PUSH2 0xDB PUSH2 0x8B0 JUMP JUMPDEST PUSH1 0x40 MLOAD PUSH2 0xE8 SWAP2 SWAP1 PUSH2 0xE6B JUMP JUMPDEST PUSH1 0x40 MLOAD DUP1 SWAP2 SUB SWAP1 RETURN JUMPDEST CALLVALUE DUP1 ISZERO PUSH2 0xFD JUMPI PUSH1 0x0 DUP1 REVERT JUMPDEST POP PUSH2 0x106 PUSH2 0x8B6 JUMP JUMPDEST PUSH1 0x40 MLOAD PUSH2 0x113 SWAP2 SWAP1 PUSH2 0xE6B JUMP JUMPDEST PUSH1 0x40 MLOAD DUP1 SWAP2 SUB SWAP1 RETURN JUMPDEST CALLVALUE DUP1 ISZERO PUSH2 0x128 JUMPI PUSH1 0x0 DUP1 REVERT JUMPDEST POP PUSH2 0x143 PUSH1 0x4 DUP1 CALLDATASIZE SUB DUP2 ADD SWAP1 PUSH2 0x13E SWAP2 SWAP1 PUSH2 0xEEB JUMP JUMPDEST PUSH2 0x8BC JUMP JUMPDEST STOP JUMPDEST PUSH2 0x15F PUSH1 0x4 DUP1 CALLDATASIZE SUB DUP2 ADD SWAP1 PUSH2 0x15A SWAP2 SWAP1 PUSH2 0xCB8 JUMP JUMPDEST PUSH2 0xB46 JUMP JUMPDEST STOP JUMPDEST PUSH1 0x2 PUSH1 0x20 MSTORE DUP1 PUSH1 0x0 MSTORE PUSH1 0x40 PUSH1 0x0 KECCAK256 PUSH1 0x0 SWAP2 POP SWAP1 POP DUP1 PUSH1 0x0 ADD PUSH1 0x0 SWAP1 SLOAD SWAP1 PUSH2 0x100 EXP SWAP1 DIV PUSH20 0xFFFFFFFFFFFFFFFFFFFFFFFFFFFFFFFFFFFFFFFF AND SWAP1 DUP1 PUSH1 0x1 ADD DUP1 SLOAD PUSH2 0x1AA SWAP1 PUSH2 0x1003 JUMP JUMPDEST DUP1 PUSH1 0x1F ADD PUSH1 0x20 DUP1 SWAP2 DIV MUL PUSH1 0x20 ADD PUSH1 0x40 MLOAD SWAP1 DUP2 ADD PUSH1 0x40 MSTORE DUP1 SWAP3 SWAP2 SWAP1 DUP2 DUP2 MSTORE PUSH1 0x20 ADD DUP3 DUP1 SLOAD PUSH2 0x1D6 SWAP1 PUSH2 0x1003 JUMP JUMPDEST DUP1 ISZERO PUSH2 0x223 JUMPI DUP1 PUSH1 0x1F LT PUSH2 0x1F8 JUMPI PUSH2 0x100 DUP1 DUP4 SLOAD DIV MUL DUP4 MSTORE SWAP2 PUSH1 0x20 ADD SWAP2 PUSH2 0x223 JUMP JUMPDEST DUP3 ADD SWAP2 SWAP1 PUSH1 0x0 MSTORE PUSH1 0x20 PUSH1 0x0 KECCAK256 SWAP1 JUMPDEST DUP2 SLOAD DUP2 MSTORE SWAP1 PUSH1 0x1 ADD SWAP1 PUSH1 0x20 ADD DUP1 DUP4 GT PUSH2 0x206 JUMPI DUP3 SWAP1 SUB PUSH1 0x1F AND DUP3 ADD SWAP2 JUMPDEST POP POP POP POP POP SWAP1 DUP1 PUSH1 0x2 ADD DUP1 SLOAD PUSH2 0x238 SWAP1 PUSH2 0x1003 JUMP JUMPDEST DUP1 PUSH1 0x1F ADD PUSH1 0x20 DUP1 SWAP2 DIV MUL PUSH1 0x20 ADD PUSH1 0x40 MLOAD SWAP1 DUP2 ADD PUSH1 0x40 MSTORE DUP1 SWAP3 SWAP2 SWAP1 DUP2 DUP2 MSTORE PUSH1 0x20 ADD DUP3 DUP1 SLOAD PUSH2 0x264 SWAP1 PUSH2 0x1003 JUMP JUMPDEST DUP1 ISZERO PUSH2 0x2B1 JUMPI DUP1 PUSH1 0x1F LT PUSH2 0x286 JUMPI PUSH2 0x100 DUP1 DUP4 SLOAD DIV MUL DUP4 MSTORE SWAP2 PUSH1 0x20 ADD SWAP2 PUSH2 0x2B1 JUMP JUMPDEST DUP3 ADD SWAP2 SWAP1 PUSH1 0x0 MSTORE PUSH1 0x20 PUSH1 0x0 KECCAK256 SWAP1 JUMPDEST DUP2 SLOAD DUP2 MSTORE SWAP1 PUSH1 0x1 ADD SWAP1 PUSH1 0x20 ADD DUP1 DUP4 GT PUSH2 0x294 JUMPI DUP3 SWAP1 SUB PUSH1 0x1F AND DUP3 ADD SWAP2 JUMPDEST POP POP POP POP POP SWAP1 DUP1 PUSH1 0x3 ADD DUP1 SLOAD PUSH2 0x2C6 SWAP1 PUSH2 0x1003 JUMP JUMPDEST DUP1 PUSH1 0x1F ADD PUSH1 0x20 DUP1 SWAP2 DIV MUL PUSH1 0x20 ADD PUSH1 0x40 MLOAD SWAP1 DUP2 ADD PUSH1 0x40 MSTORE DUP1 SWAP3 SWAP2 SWAP1 DUP2 DUP2 MSTORE PUSH1 0x20 ADD DUP3 DUP1 SLOAD PUSH2 0x2F2 SWAP1 PUSH2 0x1003 JUMP JUMPDEST DUP1 ISZERO PUSH2 0x33F JUMPI DUP1 PUSH1 0x1F LT PUSH2 0x314 JUMPI PUSH2 0x100 DUP1 DUP4 SLOAD DIV MUL DUP4 MSTORE SWAP2 PUSH1 0x20 ADD SWAP2 PUSH2 0x33F JUMP JUMPDEST DUP3 ADD SWAP2 SWAP1 PUSH1 0x0 MSTORE PUSH1 0x20 PUSH1 0x0 KECCAK256 SWAP1 JUMPDEST DUP2 SLOAD DUP2 MSTORE SWAP1 PUSH1 0x1 ADD SWAP1 PUSH1 0x20 ADD DUP1 DUP4 GT PUSH2 0x322 JUMPI DUP3 SWAP1 SUB PUSH1 0x1F AND DUP3 ADD SWAP2 JUMPDEST POP POP POP POP POP SWAP1 DUP1 PUSH1 0x4 ADD DUP1 SLOAD PUSH2 0x354 SWAP1 PUSH2 0x1003 JUMP JUMPDEST DUP1 PUSH1 0x1F ADD PUSH1 0x20 DUP1 SWAP2 DIV MUL PUSH1 0x20 ADD PUSH1 0x40 MLOAD SWAP1 DUP2 ADD PUSH1 0x40 MSTORE DUP1 SWAP3 SWAP2 SWAP1 DUP2 DUP2 MSTORE PUSH1 0x20 ADD DUP3 DUP1 SLOAD PUSH2 0x380 SWAP1 PUSH2 0x1003 JUMP JUMPDEST DUP1 ISZERO PUSH2 0x3CD JUMPI DUP1 PUSH1 0x1F LT PUSH2 0x3A2 JUMPI PUSH2 0x100 DUP1 DUP4 SLOAD DIV MUL DUP4 MSTORE SWAP2 PUSH1 0x20 ADD SWAP2 PUSH2 0x3CD JUMP JUMPDEST DUP3 ADD SWAP2 SWAP1 PUSH1 0x0 MSTORE PUSH1 0x20 PUSH1 0x0 KECCAK256 SWAP1 JUMPDEST DUP2 SLOAD DUP2 MSTORE SWAP1 PUSH1 0x1 ADD SWAP1 PUSH1 0x20 ADD DUP1 DUP4 GT PUSH2 0x3B0 JUMPI DUP3 SWAP1 SUB PUSH1 0x1F AND DUP3 ADD SWAP2 JUMPDEST POP POP POP POP POP SWAP1 DUP1 PUSH1 0x5 ADD SLOAD SWAP1 DUP1 PUSH1 0x6 ADD PUSH1 0x0 SWAP1 SLOAD SWAP1 PUSH2 0x100 EXP SWAP1 DIV PUSH1 0xFF AND SWAP1 POP DUP8 JUMP JUMPDEST PUSH1 0x0 PUSH1 0x2 PUSH1 0x0 DUP4 DUP2 MSTORE PUSH1 0x20 ADD SWAP1 DUP2 MSTORE PUSH1 0x20 ADD PUSH1 0x0 KECCAK256 PUSH1 0x40 MLOAD DUP1 PUSH1 0xE0 ADD PUSH1 0x40 MSTORE SWAP1 DUP2 PUSH1 0x0 DUP3 ADD PUSH1 0x0 SWAP1 SLOAD SWAP1 PUSH2 0x100 EXP SWAP1 DIV PUSH20 0xFFFFFFFFFFFFFFFFFFFFFFFFFFFFFFFFFFFFFFFF AND PUSH20 0xFFFFFFFFFFFFFFFFFFFFFFFFFFFFFFFFFFFFFFFF AND PUSH20 0xFFFFFFFFFFFFFFFFFFFFFFFFFFFFFFFFFFFFFFFF AND DUP2 MSTORE PUSH1 0x20 ADD PUSH1 0x1 DUP3 ADD DUP1 SLOAD PUSH2 0x476 SWAP1 PUSH2 0x1003 JUMP JUMPDEST DUP1 PUSH1 0x1F ADD PUSH1 0x20 DUP1 SWAP2 DIV MUL PUSH1 0x20 ADD PUSH1 0x40 MLOAD SWAP1 DUP2 ADD PUSH1 0x40 MSTORE DUP1 SWAP3 SWAP2 SWAP1 DUP2 DUP2 MSTORE PUSH1 0x20 ADD DUP3 DUP1 SLOAD PUSH2 0x4A2 SWAP1 PUSH2 0x1003 JUMP JUMPDEST DUP1 ISZERO PUSH2 0x4EF JUMPI DUP1 PUSH1 0x1F LT PUSH2 0x4C4 JUMPI PUSH2 0x100 DUP1 DUP4 SLOAD DIV MUL DUP4 MSTORE SWAP2 PUSH1 0x20 ADD SWAP2 PUSH2 0x4EF JUMP JUMPDEST DUP3 ADD SWAP2 SWAP1 PUSH1 0x0 MSTORE PUSH1 0x20 PUSH1 0x0 KECCAK256 SWAP1 JUMPDEST DUP2 SLOAD DUP2 MSTORE SWAP1 PUSH1 0x1 ADD SWAP1 PUSH1 0x20 ADD DUP1 DUP4 GT PUSH2 0x4D2 JUMPI DUP3 SWAP1 SUB PUSH1 0x1F AND DUP3 ADD SWAP2 JUMPDEST POP POP POP POP POP DUP2 MSTORE PUSH1 0x20 ADD PUSH1 0x2 DUP3 ADD DUP1 SLOAD PUSH2 0x508 SWAP1 PUSH2 0x1003 JUMP JUMPDEST DUP1 PUSH1 0x1F ADD PUSH1 0x20 DUP1 SWAP2 DIV MUL PUSH1 0x20 ADD PUSH1 0x40 MLOAD SWAP1 DUP2 ADD PUSH1 0x40 MSTORE DUP1 SWAP3 SWAP2 SWAP1 DUP2 DUP2 MSTORE PUSH1 0x20 ADD DUP3 DUP1 SLOAD PUSH2 0x534 SWAP1 PUSH2 0x1003 JUMP JUMPDEST DUP1 ISZERO PUSH2 0x581 JUMPI DUP1 PUSH1 0x1F LT PUSH2 0x556 JUMPI PUSH2 0x100 DUP1 DUP4 SLOAD DIV MUL DUP4 MSTORE SWAP2 PUSH1 0x20 ADD SWAP2 PUSH2 0x581 JUMP JUMPDEST DUP3 ADD SWAP2 SWAP1 PUSH1 0x0 MSTORE PUSH1 0x20 PUSH1 0x0 KECCAK256 SWAP1 JUMPDEST DUP2 SLOAD DUP2 MSTORE SWAP1 PUSH1 0x1 ADD SWAP1 PUSH1 0x20 ADD DUP1 DUP4 GT PUSH2 0x564 JUMPI DUP3 SWAP1 SUB PUSH1 0x1F AND DUP3 ADD SWAP2 JUMPDEST POP POP POP POP POP DUP2 MSTORE PUSH1 0x20 ADD PUSH1 0x3 DUP3 ADD DUP1 SLOAD PUSH2 0x59A SWAP1 PUSH2 0x1003 JUMP JUMPDEST DUP1 PUSH1 0x1F ADD PUSH1 0x20 DUP1 SWAP2 DIV MUL PUSH1 0x20 ADD PUSH1 0x40 MLOAD SWAP1 DUP2 ADD PUSH1 0x40 MSTORE DUP1 SWAP3 SWAP2 SWAP1 DUP2 DUP2 MSTORE PUSH1 0x20 ADD DUP3 DUP1 SLOAD PUSH2 0x5C6 SWAP1 PUSH2 0x1003 JUMP JUMPDEST DUP1 ISZERO PUSH2 0x613 JUMPI DUP1 PUSH1 0x1F LT PUSH2 0x5E8 JUMPI PUSH2 0x100 DUP1 DUP4 SLOAD DIV MUL DUP4 MSTORE SWAP2 PUSH1 0x20 ADD SWAP2 PUSH2 0x613 JUMP JUMPDEST DUP3 ADD SWAP2 SWAP1 PUSH1 0x0 MSTORE PUSH1 0x20 PUSH1 0x0 KECCAK256 SWAP1 JUMPDEST DUP2 SLOAD DUP2 MSTORE SWAP1 PUSH1 0x1 ADD SWAP1 PUSH1 0x20 ADD DUP1 DUP4 GT PUSH2 0x5F6 JUMPI DUP3 SWAP1 SUB PUSH1 0x1F AND DUP3 ADD SWAP2 JUMPDEST POP POP POP POP POP DUP2 MSTORE PUSH1 0x20 ADD PUSH1 0x4 DUP3 ADD DUP1 SLOAD PUSH2 0x62C SWAP1 PUSH2 0x1003 JUMP JUMPDEST DUP1 PUSH1 0x1F ADD PUSH1 0x20 DUP1 SWAP2 DIV MUL PUSH1 0x20 ADD PUSH1 0x40 MLOAD SWAP1 DUP2 ADD PUSH1 0x40 MSTORE DUP1 SWAP3 SWAP2 SWAP1 DUP2 DUP2 MSTORE PUSH1 0x20 ADD DUP3 DUP1 SLOAD PUSH2 0x658 SWAP1 PUSH2 0x1003 JUMP JUMPDEST DUP1 ISZERO PUSH2 0x6A5 JUMPI DUP1 PUSH1 0x1F LT PUSH2 0x67A JUMPI PUSH2 0x100 DUP1 DUP4 SLOAD DIV MUL DUP4 MSTORE SWAP2 PUSH1 0x20 ADD SWAP2 PUSH2 0x6A5 JUMP JUMPDEST DUP3 ADD SWAP2 SWAP1 PUSH1 0x0 MSTORE PUSH1 0x20 PUSH1 0x0 KECCAK256 SWAP1 JUMPDEST DUP2 SLOAD DUP2 MSTORE SWAP1 PUSH1 0x1 ADD SWAP1 PUSH1 0x20 ADD DUP1 DUP4 GT PUSH2 0x688 JUMPI DUP3 SWAP1 SUB PUSH1 0x1F AND DUP3 ADD SWAP2 JUMPDEST POP POP POP POP POP DUP2 MSTORE PUSH1 0x20 ADD PUSH1 0x5 DUP3 ADD SLOAD DUP2 MSTORE PUSH1 0x20 ADD PUSH1 0x6 DUP3 ADD PUSH1 0x0 SWAP1 SLOAD SWAP1 PUSH2 0x100 EXP SWAP1 DIV PUSH1 0xFF AND ISZERO ISZERO ISZERO ISZERO DUP2 MSTORE POP POP SWAP1 POP CALLER PUSH20 0xFFFFFFFFFFFFFFFFFFFFFFFFFFFFFFFFFFFFFFFF AND DUP2 PUSH1 0x0 ADD MLOAD PUSH20 0xFFFFFFFFFFFFFFFFFFFFFFFFFFFFFFFFFFFFFFFF AND EQ PUSH2 0x747 JUMPI PUSH1 0x40 MLOAD PUSH32 0x8C379A000000000000000000000000000000000000000000000000000000000 DUP2 MSTORE PUSH1 0x4 ADD PUSH2 0x73E SWAP1 PUSH2 0x1080 JUMP JUMPDEST PUSH1 0x40 MLOAD DUP1 SWAP2 SUB SWAP1 REVERT JUMPDEST PUSH1 0x1 ISZERO ISZERO PUSH1 0x2 PUSH1 0x0 DUP5 DUP2 MSTORE PUSH1 0x20 ADD SWAP1 DUP2 MSTORE PUSH1 0x20 ADD PUSH1 0x0 KECCAK256 PUSH1 0x6 ADD PUSH1 0x0 SWAP1 SLOAD SWAP1 PUSH2 0x100 EXP SWAP1 DIV PUSH1 0xFF AND ISZERO ISZERO EQ PUSH2 0x7B1 JUMPI PUSH1 0x40 MLOAD PUSH32 0x8C379A000000000000000000000000000000000000000000000000000000000 DUP2 MSTORE PUSH1 0x4 ADD PUSH2 0x7A8 SWAP1 PUSH2 0x10EC JUMP JUMPDEST PUSH1 0x40 MLOAD DUP1 SWAP2 SUB SWAP1 REVERT JUMPDEST PUSH1 0x0 SLOAD DUP2 PUSH1 0xA0 ADD MLOAD GT PUSH2 0x7F9 JUMPI PUSH1 0x40 MLOAD PUSH32 0x8C379A000000000000000000000000000000000000000000000000000000000 DUP2 MSTORE PUSH1 0x4 ADD PUSH2 0x7F0 SWAP1 PUSH2 0x117E JUMP JUMPDEST PUSH1 0x40 MLOAD DUP1 SWAP2 SUB SWAP1 REVERT JUMPDEST PUSH1 0x0 DUP2 PUSH1 0x0 ADD MLOAD SWAP1 POP DUP1 PUSH20 0xFFFFFFFFFFFFFFFFFFFFFFFFFFFFFFFFFFFFFFFF AND PUSH1 0x0 SLOAD DUP4 PUSH1 0xA0 ADD MLOAD PUSH2 0x82B SWAP2 SWAP1 PUSH2 0x11CD JUMP JUMPDEST PUSH1 0x40 MLOAD PUSH2 0x837 SWAP1 PUSH2 0x1232 JUMP JUMPDEST PUSH1 0x0 PUSH1 0x40 MLOAD DUP1 DUP4 SUB DUP2 DUP6 DUP8 GAS CALL SWAP3 POP POP POP RETURNDATASIZE DUP1 PUSH1 0x0 DUP2 EQ PUSH2 0x874 JUMPI PUSH1 0x40 MLOAD SWAP2 POP PUSH1 0x1F NOT PUSH1 0x3F RETURNDATASIZE ADD AND DUP3 ADD PUSH1 0x40 MSTORE RETURNDATASIZE DUP3 MSTORE RETURNDATASIZE PUSH1 0x0 PUSH1 0x20 DUP5 ADD RETURNDATACOPY PUSH2 0x879 JUMP JUMPDEST PUSH1 0x60 SWAP2 POP JUMPDEST POP POP POP PUSH1 0x0 PUSH1 0x2 PUSH1 0x0 DUP6 DUP2 MSTORE PUSH1 0x20 ADD SWAP1 DUP2 MSTORE PUSH1 0x20 ADD PUSH1 0x0 KECCAK256 PUSH1 0x6 ADD PUSH1 0x0 PUSH2 0x100 EXP DUP2 SLOAD DUP2 PUSH1 0xFF MUL NOT AND SWAP1 DUP4 ISZERO ISZERO MUL OR SWAP1 SSTORE POP POP POP POP JUMP JUMPDEST PUSH1 0x1 SLOAD DUP2 JUMP JUMPDEST PUSH1 0x0 SLOAD DUP2 JUMP JUMPDEST PUSH2 0x8C4 PUSH2 0xC23 JUMP JUMPDEST DUP9 DUP9 DUP1 DUP1 PUSH1 0x1F ADD PUSH1 0x20 DUP1 SWAP2 DIV MUL PUSH1 0x20 ADD PUSH1 0x40 MLOAD SWAP1 DUP2 ADD PUSH1 0x40 MSTORE DUP1 SWAP4 SWAP3 SWAP2 SWAP1 DUP2 DUP2 MSTORE PUSH1 0x20 ADD DUP4 DUP4 DUP1 DUP3 DUP5 CALLDATACOPY PUSH1 0x0 DUP2 DUP5 ADD MSTORE PUSH1 0x1F NOT PUSH1 0x1F DUP3 ADD AND SWAP1 POP DUP1 DUP4 ADD SWAP3 POP POP POP POP POP POP POP DUP2 PUSH1 0x20 ADD DUP2 SWAP1 MSTORE POP DUP7 DUP7 DUP1 DUP1 PUSH1 0x1F ADD PUSH1 0x20 DUP1 SWAP2 DIV MUL PUSH1 0x20 ADD PUSH1 0x40 MLOAD SWAP1 DUP2 ADD PUSH1 0x40 MSTORE DUP1 SWAP4 SWAP3 SWAP2 SWAP1 DUP2 DUP2 MSTORE PUSH1 0x20 ADD DUP4 DUP4 DUP1 DUP3 DUP5 CALLDATACOPY PUSH1 0x0 DUP2 DUP5 ADD MSTORE PUSH1 0x1F NOT PUSH1 0x1F DUP3 ADD AND SWAP1 POP DUP1 DUP4 ADD SWAP3 POP POP POP POP POP POP POP DUP2 PUSH1 0x40 ADD DUP2 SWAP1 MSTORE POP DUP5 DUP5 DUP1 DUP1 PUSH1 0x1F ADD PUSH1 0x20 DUP1 SWAP2 DIV MUL PUSH1 0x20 ADD PUSH1 0x40 MLOAD SWAP1 DUP2 ADD PUSH1 0x40 MSTORE DUP1 SWAP4 SWAP3 SWAP2 SWAP1 DUP2 DUP2 MSTORE PUSH1 0x20 ADD DUP4 DUP4 DUP1 DUP3 DUP5 CALLDATACOPY PUSH1 0x0 DUP2 DUP5 ADD MSTORE PUSH1 0x1F NOT PUSH1 0x1F DUP3 ADD AND SWAP1 POP DUP1 DUP4 ADD SWAP3 POP POP POP POP POP POP POP DUP2 PUSH1 0x60 ADD DUP2 SWAP1 MSTORE POP DUP3 DUP3 DUP1 DUP1 PUSH1 0x1F ADD PUSH1 0x20 DUP1 SWAP2 DIV MUL PUSH1 0x20 ADD PUSH1 0x40 MLOAD SWAP1 DUP2 ADD PUSH1 0x40 MSTORE DUP1 SWAP4 SWAP3 SWAP2 SWAP1 DUP2 DUP2 MSTORE PUSH1 0x20 ADD DUP4 DUP4 DUP1 DUP3 DUP5 CALLDATACOPY PUSH1 0x0 DUP2 DUP5 ADD MSTORE PUSH1 0x1F NOT PUSH1 0x1F DUP3 ADD AND SWAP1 POP DUP1 DUP4 ADD SWAP3 POP POP POP POP POP POP POP DUP2 PUSH1 0x80 ADD DUP2 SWAP1 MSTORE POP PUSH1 0x1 DUP2 PUSH1 0xC0 ADD SWAP1 ISZERO ISZERO SWAP1 DUP2 ISZERO ISZERO DUP2 MSTORE POP POP CALLER DUP2 PUSH1 0x0 ADD SWAP1 PUSH20 0xFFFFFFFFFFFFFFFFFFFFFFFFFFFFFFFFFFFFFFFF AND SWAP1 DUP2 PUSH20 0xFFFFFFFFFFFFFFFFFFFFFFFFFFFFFFFFFFFFFFFF AND DUP2 MSTORE POP POP PUSH1 0x1 PUSH1 0x0 DUP2 SLOAD DUP1 SWAP3 SWAP2 SWAP1 PUSH2 0xA54 SWAP1 PUSH2 0x1247 JUMP JUMPDEST SWAP2 SWAP1 POP SSTORE POP DUP1 PUSH1 0x2 PUSH1 0x0 PUSH1 0x1 SLOAD DUP2 MSTORE PUSH1 0x20 ADD SWAP1 DUP2 MSTORE PUSH1 0x20 ADD PUSH1 0x0 KECCAK256 PUSH1 0x0 DUP3 ADD MLOAD DUP2 PUSH1 0x0 ADD PUSH1 0x0 PUSH2 0x100 EXP DUP2 SLOAD DUP2 PUSH20 0xFFFFFFFFFFFFFFFFFFFFFFFFFFFFFFFFFFFFFFFF MUL NOT AND SWAP1 DUP4 PUSH20 0xFFFFFFFFFFFFFFFFFFFFFFFFFFFFFFFFFFFFFFFF AND MUL OR SWAP1 SSTORE POP PUSH1 0x20 DUP3 ADD MLOAD DUP2 PUSH1 0x1 ADD SWAP1 DUP2 PUSH2 0xACB SWAP2 SWAP1 PUSH2 0x146A JUMP JUMPDEST POP PUSH1 0x40 DUP3 ADD MLOAD DUP2 PUSH1 0x2 ADD SWAP1 DUP2 PUSH2 0xAE1 SWAP2 SWAP1 PUSH2 0x146A JUMP JUMPDEST POP PUSH1 0x60 DUP3 ADD MLOAD DUP2 PUSH1 0x3 ADD SWAP1 DUP2 PUSH2 0xAF7 SWAP2 SWAP1 PUSH2 0x146A JUMP JUMPDEST POP PUSH1 0x80 DUP3 ADD MLOAD DUP2 PUSH1 0x4 ADD SWAP1 DUP2 PUSH2 0xB0D SWAP2 SWAP1 PUSH2 0x146A JUMP JUMPDEST POP PUSH1 0xA0 DUP3 ADD MLOAD DUP2 PUSH1 0x5 ADD SSTORE PUSH1 0xC0 DUP3 ADD MLOAD DUP2 PUSH1 0x6 ADD PUSH1 0x0 PUSH2 0x100 EXP DUP2 SLOAD DUP2 PUSH1 0xFF MUL NOT AND SWAP1 DUP4 ISZERO ISZERO MUL OR SWAP1 SSTORE POP SWAP1 POP POP POP POP POP POP POP POP POP POP POP JUMP JUMPDEST PUSH1 0x0 CALLVALUE GT PUSH2 0xB89 JUMPI PUSH1 0x40 MLOAD PUSH32 0x8C379A000000000000000000000000000000000000000000000000000000000 DUP2 MSTORE PUSH1 0x4 ADD PUSH2 0xB80 SWAP1 PUSH2 0x15AE JUMP JUMPDEST PUSH1 0x40 MLOAD DUP1 SWAP2 SUB SWAP1 REVERT JUMPDEST PUSH1 0x1 ISZERO ISZERO PUSH1 0x2 PUSH1 0x0 DUP4 DUP2 MSTORE PUSH1 0x20 ADD SWAP1 DUP2 MSTORE PUSH1 0x20 ADD PUSH1 0x0 KECCAK256 PUSH1 0x6 ADD PUSH1 0x0 SWAP1 SLOAD SWAP1 PUSH2 0x100 EXP SWAP1 DIV PUSH1 0xFF AND ISZERO ISZERO EQ PUSH2 0xBF3 JUMPI PUSH1 0x40 MLOAD PUSH32 0x8C379A000000000000000000000000000000000000000000000000000000000 DUP2 MSTORE PUSH1 0x4 ADD PUSH2 0xBEA SWAP1 PUSH2 0x161A JUMP JUMPDEST PUSH1 0x40 MLOAD DUP1 SWAP2 SUB SWAP1 REVERT JUMPDEST CALLVALUE PUSH1 0x2 PUSH1 0x0 DUP4 DUP2 MSTORE PUSH1 0x20 ADD SWAP1 DUP2 MSTORE PUSH1 0x20 ADD PUSH1 0x0 KECCAK256 PUSH1 0x5 ADD PUSH1 0x0 DUP3 DUP3 SLOAD PUSH2 0xC19 SWAP2 SWAP1 PUSH2 0x163A JUMP JUMPDEST SWAP3 POP POP DUP2 SWAP1 SSTORE POP POP JUMP JUMPDEST PUSH1 0x40 MLOAD DUP1 PUSH1 0xE0 ADD PUSH1 0x40 MSTORE DUP1 PUSH1 0x0 PUSH20 0xFFFFFFFFFFFFFFFFFFFFFFFFFFFFFFFFFFFFFFFF AND DUP2 MSTORE PUSH1 0x20 ADD PUSH1 0x60 DUP2 MSTORE PUSH1 0x20 ADD PUSH1 0x60 DUP2 MSTORE PUSH1 0x20 ADD PUSH1 0x60 DUP2 MSTORE PUSH1 0x20 ADD PUSH1 0x60 DUP2 MSTORE PUSH1 0x20 ADD PUSH1 0x0 DUP2 MSTORE PUSH1 0x20 ADD PUSH1 0x0 ISZERO ISZERO DUP2 MSTORE POP SWAP1 JUMP JUMPDEST PUSH1 0x0 DUP1 REVERT JUMPDEST PUSH1 0x0 DUP1 REVERT JUMPDEST PUSH1 0x0 DUP2 SWAP1 POP SWAP2 SWAP1 POP JUMP JUMPDEST PUSH2 0xC95 DUP2 PUSH2 0xC82 JUMP JUMPDEST DUP2 EQ PUSH2 0xCA0 JUMPI PUSH1 0x0 DUP1 REVERT JUMPDEST POP JUMP JUMPDEST PUSH1 0x0 DUP2 CALLDATALOAD SWAP1 POP PUSH2 0xCB2 DUP2 PUSH2 0xC8C JUMP JUMPDEST SWAP3 SWAP2 POP POP JUMP JUMPDEST PUSH1 0x0 PUSH1 0x20 DUP3 DUP5 SUB SLT ISZERO PUSH2 0xCCE JUMPI PUSH2 0xCCD PUSH2 0xC78 JUMP JUMPDEST JUMPDEST PUSH1 0x0 PUSH2 0xCDC DUP5 DUP3 DUP6 ADD PUSH2 0xCA3 JUMP JUMPDEST SWAP2 POP POP SWAP3 SWAP2 POP POP JUMP JUMPDEST PUSH1 0x0 PUSH20 0xFFFFFFFFFFFFFFFFFFFFFFFFFFFFFFFFFFFFFFFF DUP3 AND SWAP1 POP SWAP2 SWAP1 POP JUMP JUMPDEST PUSH1 0x0 PUSH2 0xD10 DUP3 PUSH2 0xCE5 JUMP JUMPDEST SWAP1 POP SWAP2 SWAP1 POP JUMP JUMPDEST PUSH2 0xD20 DUP2 PUSH2 0xD05 JUMP JUMPDEST DUP3 MSTORE POP POP JUMP JUMPDEST PUSH1 0x0 DUP2 MLOAD SWAP1 POP SWAP2 SWAP1 POP JUMP JUMPDEST PUSH1 0x0 DUP3 DUP3 MSTORE PUSH1 0x20 DUP3 ADD SWAP1 POP SWAP3 SWAP2 POP POP JUMP JUMPDEST PUSH1 0x0 JUMPDEST DUP4 DUP2 LT ISZERO PUSH2 0xD60 JUMPI DUP1 DUP3 ADD MLOAD DUP2 DUP5 ADD MSTORE PUSH1 0x20 DUP2 ADD SWAP1 POP PUSH2 0xD45 JUMP JUMPDEST PUSH1 0x0 DUP5 DUP5 ADD MSTORE POP POP POP POP JUMP JUMPDEST PUSH1 0x0 PUSH1 0x1F NOT PUSH1 0x1F DUP4 ADD AND SWAP1 POP SWAP2 SWAP1 POP JUMP JUMPDEST PUSH1 0x0 PUSH2 0xD88 DUP3 PUSH2 0xD26 JUMP JUMPDEST PUSH2 0xD92 DUP2 DUP6 PUSH2 0xD31 JUMP JUMPDEST SWAP4 POP PUSH2 0xDA2 DUP2 DUP6 PUSH1 0x20 DUP7 ADD PUSH2 0xD42 JUMP JUMPDEST PUSH2 0xDAB DUP2 PUSH2 0xD6C JUMP JUMPDEST DUP5 ADD SWAP2 POP POP SWAP3 SWAP2 POP POP JUMP JUMPDEST PUSH2 0xDBF DUP2 PUSH2 0xC82 JUMP JUMPDEST DUP3 MSTORE POP POP JUMP JUMPDEST PUSH1 0x0 DUP2 ISZERO ISZERO SWAP1 POP SWAP2 SWAP1 POP JUMP JUMPDEST PUSH2 0xDDA DUP2 PUSH2 0xDC5 JUMP JUMPDEST DUP3 MSTORE POP POP JUMP JUMPDEST PUSH1 0x0 PUSH1 0xE0 DUP3 ADD SWAP1 POP PUSH2 0xDF5 PUSH1 0x0 DUP4 ADD DUP11 PUSH2 0xD17 JUMP JUMPDEST DUP2 DUP2 SUB PUSH1 0x20 DUP4 ADD MSTORE PUSH2 0xE07 DUP2 DUP10 PUSH2 0xD7D JUMP JUMPDEST SWAP1 POP DUP2 DUP2 SUB PUSH1 0x40 DUP4 ADD MSTORE PUSH2 0xE1B DUP2 DUP9 PUSH2 0xD7D JUMP JUMPDEST SWAP1 POP DUP2 DUP2 SUB PUSH1 0x60 DUP4 ADD MSTORE PUSH2 0xE2F DUP2 DUP8 PUSH2 0xD7D JUMP JUMPDEST SWAP1 POP DUP2 DUP2 SUB PUSH1 0x80 DUP4 ADD MSTORE PUSH2 0xE43 DUP2 DUP7 PUSH2 0xD7D JUMP JUMPDEST SWAP1 POP PUSH2 0xE52 PUSH1 0xA0 DUP4 ADD DUP6 PUSH2 0xDB6 JUMP JUMPDEST PUSH2 0xE5F PUSH1 0xC0 DUP4 ADD DUP5 PUSH2 0xDD1 JUMP JUMPDEST SWAP9 SWAP8 POP POP POP POP POP POP POP POP JUMP JUMPDEST PUSH1 0x0 PUSH1 0x20 DUP3 ADD SWAP1 POP PUSH2 0xE80 PUSH1 0x0 DUP4 ADD DUP5 PUSH2 0xDB6 JUMP JUMPDEST SWAP3 SWAP2 POP POP JUMP JUMPDEST PUSH1 0x0 DUP1 REVERT JUMPDEST PUSH1 0x0 DUP1 REVERT JUMPDEST PUSH1 0x0 DUP1 REVERT JUMPDEST PUSH1 0x0 DUP1 DUP4 PUSH1 0x1F DUP5 ADD SLT PUSH2 0xEAB JUMPI PUSH2 0xEAA PUSH2 0xE86 JUMP JUMPDEST JUMPDEST DUP3 CALLDATALOAD SWAP1 POP PUSH8 0xFFFFFFFFFFFFFFFF DUP2 GT ISZERO PUSH2 0xEC8 JUMPI PUSH2 0xEC7 PUSH2 0xE8B JUMP JUMPDEST JUMPDEST PUSH1 0x20 DUP4 ADD SWAP2 POP DUP4 PUSH1 0x1 DUP3 MUL DUP4 ADD GT ISZERO PUSH2 0xEE4 JUMPI PUSH2 0xEE3 PUSH2 0xE90 JUMP JUMPDEST JUMPDEST SWAP3 POP SWAP3 SWAP1 POP JUMP JUMPDEST PUSH1 0x0 DUP1 PUSH1 0x0 DUP1 PUSH1 0x0 DUP1 PUSH1 0x0 DUP1 PUSH1 0x80 DUP10 DUP12 SUB SLT ISZERO PUSH2 0xF0B JUMPI PUSH2 0xF0A PUSH2 0xC78 JUMP JUMPDEST JUMPDEST PUSH1 0x0 DUP10 ADD CALLDATALOAD PUSH8 0xFFFFFFFFFFFFFFFF DUP2 GT ISZERO PUSH2 0xF29 JUMPI PUSH2 0xF28 PUSH2 0xC7D JUMP JUMPDEST JUMPDEST PUSH2 0xF35 DUP12 DUP3 DUP13 ADD PUSH2 0xE95 JUMP JUMPDEST SWAP9 POP SWAP9 POP POP PUSH1 0x20 DUP10 ADD CALLDATALOAD PUSH8 0xFFFFFFFFFFFFFFFF DUP2 GT ISZERO PUSH2 0xF58 JUMPI PUSH2 0xF57 PUSH2 0xC7D JUMP JUMPDEST JUMPDEST PUSH2 0xF64 DUP12 DUP3 DUP13 ADD PUSH2 0xE95 JUMP JUMPDEST SWAP7 POP SWAP7 POP POP PUSH1 0x40 DUP10 ADD CALLDATALOAD PUSH8 0xFFFFFFFFFFFFFFFF DUP2 GT ISZERO PUSH2 0xF87 JUMPI PUSH2 0xF86 PUSH2 0xC7D JUMP JUMPDEST JUMPDEST PUSH2 0xF93 DUP12 DUP3 DUP13 ADD PUSH2 0xE95 JUMP JUMPDEST SWAP5 POP SWAP5 POP POP PUSH1 0x60 DUP10 ADD CALLDATALOAD PUSH8 0xFFFFFFFFFFFFFFFF DUP2 GT ISZERO PUSH2 0xFB6 JUMPI PUSH2 0xFB5 PUSH2 0xC7D JUMP JUMPDEST JUMPDEST PUSH2 0xFC2 DUP12 DUP3 DUP13 ADD PUSH2 0xE95 JUMP JUMPDEST SWAP3 POP SWAP3 POP POP SWAP3 SWAP6 SWAP9 POP SWAP3 SWAP6 SWAP9 SWAP1 SWAP4 SWAP7 POP JUMP JUMPDEST PUSH32 0x4E487B7100000000000000000000000000000000000000000000000000000000 PUSH1 0x0 MSTORE PUSH1 0x22 PUSH1 0x4 MSTORE PUSH1 0x24 PUSH1 0x0 REVERT JUMPDEST PUSH1 0x0 PUSH1 0x2 DUP3 DIV SWAP1 POP PUSH1 0x1 DUP3 AND DUP1 PUSH2 0x101B JUMPI PUSH1 0x7F DUP3 AND SWAP2 POP JUMPDEST PUSH1 0x20 DUP3 LT DUP2 SUB PUSH2 0x102E JUMPI PUSH2 0x102D PUSH2 0xFD4 JUMP JUMPDEST JUMPDEST POP SWAP2 SWAP1 POP JUMP JUMPDEST PUSH32 0x596F7520646F206E6F742068617665207065726D697373696F6E000000000000 PUSH1 0x0 DUP3 ADD MSTORE POP JUMP JUMPDEST PUSH1 0x0 PUSH2 0x106A PUSH1 0x1A DUP4 PUSH2 0xD31 JUMP JUMPDEST SWAP2 POP PUSH2 0x1075 DUP3 PUSH2 0x1034 JUMP JUMPDEST PUSH1 0x20 DUP3 ADD SWAP1 POP SWAP2 SWAP1 POP JUMP JUMPDEST PUSH1 0x0 PUSH1 0x20 DUP3 ADD SWAP1 POP DUP2 DUP2 SUB PUSH1 0x0 DUP4 ADD MSTORE PUSH2 0x1099 DUP2 PUSH2 0x105D JUMP JUMPDEST SWAP1 POP SWAP2 SWAP1 POP JUMP JUMPDEST PUSH32 0x546869732063616D706169676E20697320636C6F736564000000000000000000 PUSH1 0x0 DUP3 ADD MSTORE POP JUMP JUMPDEST PUSH1 0x0 PUSH2 0x10D6 PUSH1 0x17 DUP4 PUSH2 0xD31 JUMP JUMPDEST SWAP2 POP PUSH2 0x10E1 DUP3 PUSH2 0x10A0 JUMP JUMPDEST PUSH1 0x20 DUP3 ADD SWAP1 POP SWAP2 SWAP1 POP JUMP JUMPDEST PUSH1 0x0 PUSH1 0x20 DUP3 ADD SWAP1 POP DUP2 DUP2 SUB PUSH1 0x0 DUP4 ADD MSTORE PUSH2 0x1105 DUP2 PUSH2 0x10C9 JUMP JUMPDEST SWAP1 POP SWAP2 SWAP1 POP JUMP JUMPDEST PUSH32 0x546869732063616D706169676E20646F6573206E6F74206861766520656E6F75 PUSH1 0x0 DUP3 ADD MSTORE PUSH32 0x67682062616C616E636500000000000000000000000000000000000000000000 PUSH1 0x20 DUP3 ADD MSTORE POP JUMP JUMPDEST PUSH1 0x0 PUSH2 0x1168 PUSH1 0x2A DUP4 PUSH2 0xD31 JUMP JUMPDEST SWAP2 POP PUSH2 0x1173 DUP3 PUSH2 0x110C JUMP JUMPDEST PUSH1 0x40 DUP3 ADD SWAP1 POP SWAP2 SWAP1 POP JUMP JUMPDEST PUSH1 0x0 PUSH1 0x20 DUP3 ADD SWAP1 POP DUP2 DUP2 SUB PUSH1 0x0 DUP4 ADD MSTORE PUSH2 0x1197 DUP2 PUSH2 0x115B JUMP JUMPDEST SWAP1 POP SWAP2 SWAP1 POP JUMP JUMPDEST PUSH32 0x4E487B7100000000000000000000000000000000000000000000000000000000 PUSH1 0x0 MSTORE PUSH1 0x11 PUSH1 0x4 MSTORE PUSH1 0x24 PUSH1 0x0 REVERT JUMPDEST PUSH1 0x0 PUSH2 0x11D8 DUP3 PUSH2 0xC82 JUMP JUMPDEST SWAP2 POP PUSH2 0x11E3 DUP4 PUSH2 0xC82 JUMP JUMPDEST SWAP3 POP DUP3 DUP3 SUB SWAP1 POP DUP2 DUP2 GT ISZERO PUSH2 0x11FB JUMPI PUSH2 0x11FA PUSH2 0x119E JUMP JUMPDEST JUMPDEST SWAP3 SWAP2 POP POP JUMP JUMPDEST PUSH1 0x0 DUP2 SWAP1 POP SWAP3 SWAP2 POP POP JUMP JUMPDEST POP JUMP JUMPDEST PUSH1 0x0 PUSH2 0x121C PUSH1 0x0 DUP4 PUSH2 0x1201 JUMP JUMPDEST SWAP2 POP PUSH2 0x1227 DUP3 PUSH2 0x120C JUMP JUMPDEST PUSH1 0x0 DUP3 ADD SWAP1 POP SWAP2 SWAP1 POP JUMP JUMPDEST PUSH1 0x0 PUSH2 0x123D DUP3 PUSH2 0x120F JUMP JUMPDEST SWAP2 POP DUP2 SWAP1 POP SWAP2 SWAP1 POP JUMP JUMPDEST PUSH1 0x0 PUSH2 0x1252 DUP3 PUSH2 0xC82 JUMP JUMPDEST SWAP2 POP PUSH32 0xFFFFFFFFFFFFFFFFFFFFFFFFFFFFFFFFFFFFFFFFFFFFFFFFFFFFFFFFFFFFFFFF DUP3 SUB PUSH2 0x1284 JUMPI PUSH2 0x1283 PUSH2 0x119E JUMP JUMPDEST JUMPDEST PUSH1 0x1 DUP3 ADD SWAP1 POP SWAP2 SWAP1 POP JUMP JUMPDEST PUSH32 0x4E487B7100000000000000000000000000000000000000000000000000000000 PUSH1 0x0 MSTORE PUSH1 0x41 PUSH1 0x4 MSTORE PUSH1 0x24 PUSH1 0x0 REVERT JUMPDEST PUSH1 0x0 DUP2 SWAP1 POP DUP2 PUSH1 0x0 MSTORE PUSH1 0x20 PUSH1 0x0 KECCAK256 SWAP1 POP SWAP2 SWAP1 POP JUMP JUMPDEST PUSH1 0x0 PUSH1 0x20 PUSH1 0x1F DUP4 ADD DIV SWAP1 POP SWAP2 SWAP1 POP JUMP JUMPDEST PUSH1 0x0 DUP3 DUP3 SHL SWAP1 POP SWAP3 SWAP2 POP POP JUMP JUMPDEST PUSH1 0x0 PUSH1 0x8 DUP4 MUL PUSH2 0x1320 PUSH32 0xFFFFFFFFFFFFFFFFFFFFFFFFFFFFFFFFFFFFFFFFFFFFFFFFFFFFFFFFFFFFFFFF DUP3 PUSH2 0x12E3 JUMP JUMPDEST PUSH2 0x132A DUP7 DUP4 PUSH2 0x12E3 JUMP JUMPDEST SWAP6 POP DUP1 NOT DUP5 AND SWAP4 POP DUP1 DUP7 AND DUP5 OR SWAP3 POP POP POP SWAP4 SWAP3 POP POP POP JUMP JUMPDEST PUSH1 0x0 DUP2 SWAP1 POP SWAP2 SWAP1 POP JUMP JUMPDEST PUSH1 0x0 PUSH2 0x1367 PUSH2 0x1362 PUSH2 0x135D DUP5 PUSH2 0xC82 JUMP JUMPDEST PUSH2 0x1342 JUMP JUMPDEST PUSH2 0xC82 JUMP JUMPDEST SWAP1 POP SWAP2 SWAP1 POP JUMP JUMPDEST PUSH1 0x0 DUP2 SWAP1 POP SWAP2 SWAP1 POP JUMP JUMPDEST PUSH2 0x1381 DUP4 PUSH2 0x134C JUMP JUMPDEST PUSH2 0x1395 PUSH2 0x138D DUP3 PUSH2 0x136E JUMP JUMPDEST DUP5 DUP5 SLOAD PUSH2 0x12F0 JUMP JUMPDEST DUP3 SSTORE POP POP POP POP JUMP JUMPDEST PUSH1 0x0 SWAP1 JUMP JUMPDEST PUSH2 0x13AA PUSH2 0x139D JUMP JUMPDEST PUSH2 0x13B5 DUP2 DUP5 DUP5 PUSH2 0x1378 JUMP JUMPDEST POP POP POP JUMP JUMPDEST JUMPDEST DUP2 DUP2 LT ISZERO PUSH2 0x13D9 JUMPI PUSH2 0x13CE PUSH1 0x0 DUP3 PUSH2 0x13A2 JUMP JUMPDEST PUSH1 0x1 DUP2 ADD SWAP1 POP PUSH2 0x13BB JUMP JUMPDEST POP POP JUMP JUMPDEST PUSH1 0x1F DUP3 GT ISZERO PUSH2 0x141E JUMPI PUSH2 0x13EF DUP2 PUSH2 0x12BE JUMP JUMPDEST PUSH2 0x13F8 DUP5 PUSH2 0x12D3 JUMP JUMPDEST DUP2 ADD PUSH1 0x20 DUP6 LT ISZERO PUSH2 0x1407 JUMPI DUP2 SWAP1 POP JUMPDEST PUSH2 0x141B PUSH2 0x1413 DUP6 PUSH2 0x12D3 JUMP JUMPDEST DUP4 ADD DUP3 PUSH2 0x13BA JUMP JUMPDEST POP POP JUMPDEST POP POP POP JUMP JUMPDEST PUSH1 0x0 DUP3 DUP3 SHR SWAP1 POP SWAP3 SWAP2 POP POP JUMP JUMPDEST PUSH1 0x0 PUSH2 0x1441 PUSH1 0x0 NOT DUP5 PUSH1 0x8 MUL PUSH2 0x1423 JUMP JUMPDEST NOT DUP1 DUP4 AND SWAP2 POP POP SWAP3 SWAP2 POP POP JUMP JUMPDEST PUSH1 0x0 PUSH2 0x145A DUP4 DUP4 PUSH2 0x1430 JUMP JUMPDEST SWAP2 POP DUP3 PUSH1 0x2 MUL DUP3 OR SWAP1 POP SWAP3 SWAP2 POP POP JUMP JUMPDEST PUSH2 0x1473 DUP3 PUSH2 0xD26 JUMP JUMPDEST PUSH8 0xFFFFFFFFFFFFFFFF DUP2 GT ISZERO PUSH2 0x148C JUMPI PUSH2 0x148B PUSH2 0x128F JUMP JUMPDEST JUMPDEST PUSH2 0x1496 DUP3 SLOAD PUSH2 0x1003 JUMP JUMPDEST PUSH2 0x14A1 DUP3 DUP3 DUP6 PUSH2 0x13DD JUMP JUMPDEST PUSH1 0x0 PUSH1 0x20 SWAP1 POP PUSH1 0x1F DUP4 GT PUSH1 0x1 DUP2 EQ PUSH2 0x14D4 JUMPI PUSH1 0x0 DUP5 ISZERO PUSH2 0x14C2 JUMPI DUP3 DUP8 ADD MLOAD SWAP1 POP JUMPDEST PUSH2 0x14CC DUP6 DUP3 PUSH2 0x144E JUMP JUMPDEST DUP7 SSTORE POP PUSH2 0x1534 JUMP JUMPDEST PUSH1 0x1F NOT DUP5 AND PUSH2 0x14E2 DUP7 PUSH2 0x12BE JUMP JUMPDEST PUSH1 0x0 JUMPDEST DUP3 DUP2 LT ISZERO PUSH2 0x150A JUMPI DUP5 DUP10 ADD MLOAD DUP3 SSTORE PUSH1 0x1 DUP3 ADD SWAP2 POP PUSH1 0x20 DUP6 ADD SWAP5 POP PUSH1 0x20 DUP2 ADD SWAP1 POP PUSH2 0x14E5 JUMP JUMPDEST DUP7 DUP4 LT ISZERO PUSH2 0x1527 JUMPI DUP5 DUP10 ADD MLOAD PUSH2 0x1523 PUSH1 0x1F DUP10 AND DUP3 PUSH2 0x1430 JUMP JUMPDEST DUP4 SSTORE POP JUMPDEST PUSH1 0x1 PUSH1 0x2 DUP9 MUL ADD DUP9 SSTORE POP POP POP JUMPDEST POP POP POP POP POP POP JUMP JUMPDEST PUSH32 0x596F75206D7573742073656E64206120646F6E6174696F6E2076616C7565203E PUSH1 0x0 DUP3 ADD MSTORE PUSH32 0x2030000000000000000000000000000000000000000000000000000000000000 PUSH1 0x20 DUP3 ADD MSTORE POP JUMP JUMPDEST PUSH1 0x0 PUSH2 0x1598 PUSH1 0x22 DUP4 PUSH2 0xD31 JUMP JUMPDEST SWAP2 POP PUSH2 0x15A3 DUP3 PUSH2 0x153C JUMP JUMPDEST PUSH1 0x40 DUP3 ADD SWAP1 POP SWAP2 SWAP1 POP JUMP JUMPDEST PUSH1 0x0 PUSH1 0x20 DUP3 ADD SWAP1 POP DUP2 DUP2 SUB PUSH1 0x0 DUP4 ADD MSTORE PUSH2 0x15C7 DUP2 PUSH2 0x158B JUMP JUMPDEST SWAP1 POP SWAP2 SWAP1 POP JUMP JUMPDEST PUSH32 0x43616E6E6F7420646F6E61746520746F20746869732063616D706169676E0000 PUSH1 0x0 DUP3 ADD MSTORE POP JUMP JUMPDEST PUSH1 0x0 PUSH2 0x1604 PUSH1 0x1E DUP4 PUSH2 0xD31 JUMP JUMPDEST SWAP2 POP PUSH2 0x160F DUP3 PUSH2 0x15CE JUMP JUMPDEST PUSH1 0x20 DUP3 ADD SWAP1 POP SWAP2 SWAP1 POP JUMP JUMPDEST PUSH1 0x0 PUSH1 0x20 DUP3 ADD SWAP1 POP DUP2 DUP2 SUB PUSH1 0x0 DUP4 ADD MSTORE PUSH2 0x1633 DUP2 PUSH2 0x15F7 JUMP JUMPDEST SWAP1 POP SWAP2 SWAP1 POP JUMP JUMPDEST PUSH1 0x0 PUSH2 0x1645 DUP3 PUSH2 0xC82 JUMP JUMPDEST SWAP2 POP PUSH2 0x1650 DUP4 PUSH2 0xC82 JUMP JUMPDEST SWAP3 POP DUP3 DUP3 ADD SWAP1 POP DUP1 DUP3 GT ISZERO PUSH2 0x1668 JUMPI PUSH2 0x1667 PUSH2 0x119E JUMP JUMPDEST JUMPDEST SWAP3 SWAP2 POP POP JUMP INVALID LOG2 PUSH5 0x6970667358 0x22 SLT KECCAK256 0xD0 0x24 SAR 0xB3 PUSH4 0x4F6EF91 DUP11 0x5E MULMOD 0xD8 STOP 0xBE SWAP2 JUMPI 0xE0 GT PUSH15 0x611C385ECA6179B4A7DEDF3564736F PUSH13 0x63430008120033000000000000 "
				},
				"gasEstimates": {
					"creation": {
						"codeDepositCost": "1159200",
						"executionCost": "28319",
						"totalCost": "1187519"
					},
					"external": {
						"addCampaign(string,string,string,string)": "infinite",
						"campaigns(uint256)": "infinite",
						"donate(uint256)": "infinite",
						"fee()": "2473",
						"nextId()": "2451",
						"withdraw(uint256)": "infinite"
					}
				},
				"methodIdentifiers": {
					"addCampaign(string,string,string,string)": "ec671486",
					"campaigns(uint256)": "141961bc",
					"donate(uint256)": "f14faf6f",
					"fee()": "ddca3f43",
					"nextId()": "61b8ce8c",
					"withdraw(uint256)": "2e1a7d4d"
				}
			},
			"storageLayout": {
				"storage": [
					{
						"astId": 19,
						"contract": "contracts/DonateCrypto.sol:DonateCrypto",
						"label": "fee",
						"offset": 0,
						"slot": "0",
						"type": "t_uint256"
					},
					{
						"astId": 22,
						"contract": "contracts/DonateCrypto.sol:DonateCrypto",
						"label": "nextId",
						"offset": 0,
						"slot": "1",
						"type": "t_uint256"
					},
					{
						"astId": 27,
						"contract": "contracts/DonateCrypto.sol:DonateCrypto",
						"label": "campaigns",
						"offset": 0,
						"slot": "2",
						"type": "t_mapping(t_uint256,t_struct(Campaign)16_storage)"
					}
				],
				"types": {
					"t_address": {
						"encoding": "inplace",
						"label": "address",
						"numberOfBytes": "20"
					},
					"t_bool": {
						"encoding": "inplace",
						"label": "bool",
						"numberOfBytes": "1"
					},
					"t_mapping(t_uint256,t_struct(Campaign)16_storage)": {
						"encoding": "mapping",
						"key": "t_uint256",
						"label": "mapping(uint256 => struct Campaign)",
						"numberOfBytes": "32",
						"value": "t_struct(Campaign)16_storage"
					},
					"t_string_storage": {
						"encoding": "bytes",
						"label": "string",
						"numberOfBytes": "32"
					},
					"t_struct(Campaign)16_storage": {
						"encoding": "inplace",
						"label": "struct Campaign",
						"members": [
							{
								"astId": 3,
								"contract": "contracts/DonateCrypto.sol:DonateCrypto",
								"label": "author",
								"offset": 0,
								"slot": "0",
								"type": "t_address"
							},
							{
								"astId": 5,
								"contract": "contracts/DonateCrypto.sol:DonateCrypto",
								"label": "tittle",
								"offset": 0,
								"slot": "1",
								"type": "t_string_storage"
							},
							{
								"astId": 7,
								"contract": "contracts/DonateCrypto.sol:DonateCrypto",
								"label": "decription",
								"offset": 0,
								"slot": "2",
								"type": "t_string_storage"
							},
							{
								"astId": 9,
								"contract": "contracts/DonateCrypto.sol:DonateCrypto",
								"label": "videoUrl",
								"offset": 0,
								"slot": "3",
								"type": "t_string_storage"
							},
							{
								"astId": 11,
								"contract": "contracts/DonateCrypto.sol:DonateCrypto",
								"label": "imageUrl",
								"offset": 0,
								"slot": "4",
								"type": "t_string_storage"
							},
							{
								"astId": 13,
								"contract": "contracts/DonateCrypto.sol:DonateCrypto",
								"label": "balance",
								"offset": 0,
								"slot": "5",
								"type": "t_uint256"
							},
							{
								"astId": 15,
								"contract": "contracts/DonateCrypto.sol:DonateCrypto",
								"label": "active",
								"offset": 0,
								"slot": "6",
								"type": "t_bool"
							}
						],
						"numberOfBytes": "224"
					},
					"t_uint256": {
						"encoding": "inplace",
						"label": "uint256",
						"numberOfBytes": "32"
					}
				}
			},
			"userdoc": {
				"kind": "user",
				"methods": {},
				"version": 1
			}
		}
	}
}